:100000000C942A000C943F000C943F000C943F0089
:100010000C943F000C943F000C943F000C943F0064
:100020000C943F000C943F000C943F000C943F0054
:100030000C943F000C943F000C943F000C943F0044
:100040000C943F000C943F000C943F000C943F0034
:100050000C943F0011241FBECFE5D8E0DEBFCDBF1A
:1000600011E0A0E6B0E0EEE3F0E702C005900D92EB
:10007000AC38B107D9F70E94AE0C0C941D380C9423
:100080000000EF92FF920F931F937B018C0120E001
:1000900030E040E05FE40E94ED0388238CF0C8016B
:1000A000B70120E030E040E05FE40E94B9010E9427
:1000B0004D049B01AC01205030404040504806C0E8
:1000C000C801B7010E944D049B01AC01B901CA01EE
:1000D0001F910F91FF90EF900895A0E0B0E0E3E74B
:1000E000F0E00C94E637DC012B01FA019C91923090
:1000F00008F439C1EB018881823008F433C19430AF
:1001000069F4843009F02FC111969C91119789816F
:10011000981709F428C1ACEBB0E025C1843009F48C
:1001200021C18230A9F4923009F01DC19A01AD01BC
:1001300088E0EA010990AE01E90109929E0181502F
:10014000C1F7E201898111969C918923818308C1BD
:10015000923009F407C112962D903C901397EB0151
:100160008A819B811496AD90BD90CD90DC901797BD
:10017000EC80FD800E811F819101281B390BB90194
:1001800037FF04C066277727621B730B6032710547
:100190000CF061C0121613066CF537014801062EEB
:1001A00004C096948794779467940A94D2F721E0D8
:1001B00030E040E050E004C0220F331F441F551FC1
:1001C0006A95D2F721503040404050402E213F21C7
:1001D00040235123211531054105510521F021E02E
:1001E00030E040E050E079018A01E628F72808294C
:1001F00019293CC0232BD1F1260E371E35014601AB
:10020000062E04C096948794779467940A94D2F744
:1002100021E030E040E050E004C0220F331F441FD3
:10022000551F6A95D2F721503040404050402A2156
:100230003B214C215D21211531054105510521F05E
:1002400021E030E040E050E059016A01A628B728DB
:10025000C828D9280BC0821593052CF01C01AA24AC
:10026000BB24650103C0EE24FF24870111969C91F5
:10027000D20111968C91981709F445C0992339F051
:10028000A80197012A193B094C095D0906C0A6017E
:1002900095012E193F09400B510B57FD08C01182E3
:1002A0003382228224833583468357831DC081E0B5
:1002B00081833382228288279927DC01821B930B5A
:1002C000A40BB50B84839583A683B7830DC0220F3F
:1002D000331F441F551F24833583468357838281F0
:1002E000938101979383828324813581468157814D
:1002F000DA01C9010197A109B1098F5F9F4FAF4F83
:10030000BF4328F30BC0918333822282EA0CFB1C8B
:100310000C1D1D1DE482F5820683178383E0808314
:10032000248135814681578157FF1AC0C901AA2708
:1003300097FDA095BA2F81709070A070B0705695FF
:10034000479537952795822B932BA42BB52B848328
:100350009583A683B7838281938101969383828359
:10036000DF0101C0D201CD01CDB7DEB7E2E10C94CF
:100370000238A0E2B0E0EFEBF1E00C94F2376983D1
:100380007A838B839C832D833E834F835887E9E058
:10039000EE2EF12CEC0EFD1ECE010196B7010E944F
:1003A00076058E010F5E1F4FCE010596B8010E94A3
:1003B00076058A8991E089278A8BC701B801AE0149
:1003C000475E5F4F0E946D000E94A104A096E6E088
:1003D0000C940E38A0E2B0E0E0EFF1E00C94F237BC
:1003E00069837A838B839C832D833E834F835887D5
:1003F000F9E0EF2EF12CEC0EFD1ECE010196B701B7
:100400000E9476058E010F5E1F4FCE010596B80142
:100410000E947605C701B801AE01475E5F4F0E949A
:100420006D000E94A104A096E6E00C940E38A0E2B4
:10043000B0E0EDE1F2E00C94E63769837A838B83D8
:100440009C832D833E834F835887CE010196BE0146
:10045000675F7F4F0E947605CE010596BE016F5EF5
:100460007F4F0E9476059985923088F08989823085
:10047000C8F0943019F4823051F404C0843029F467
:10048000923081F48CEB90E0C6C0923049F420E0C9
:100490009A858A89981321E02A87CE010996BBC0E4
:1004A000823049F420E09A858A89981321E02A8BCA
:1004B000CE014196B0C02D843E844F8458886D880B
:1004C0007E888F88988CEE24FF248701AA24BB2481
:1004D000650140E050E060E070E0E0E0F0E0C10184
:1004E00081709070892BE9F0E60CF71C081D191D2E
:1004F0009A01AB012A0D3B1D4C1D5D1D80E090E073
:10050000A0E0B0E0E614F7040805190520F481E046
:1005100090E0A0E0B0E0BA01A901480F591F6A1F9E
:100520007B1FAA0CBB1CCC1CDD1C97FE08C081E005
:1005300090E0A0E0B0E0A82AB92ACA2ADB2A3196C6
:10054000E032F10549F0660C771C881C991C569422
:10055000479437942794C3CFFA85EA892B893C893D
:100560008B859C85280F391F2E5F3F4F17C0CA010E
:1005700081709070892B61F016950795F794E79438
:1005800080E090E0A0E0B0E8E82AF92A0A2B1B2BD3
:1005900076956795579547952F5F3F4F77FDE7CF46
:1005A0000CC0440F551F661F771F17FD4160EE0CEE
:1005B000FF1C001F111F21503040403090E05907B0
:1005C00090E0690790E4790760F32B8F3C8FDB01A3
:1005D000CA018F779070A070B07080349105A1052A
:1005E000B10561F447FD0AC0E114F10401051105EC
:1005F00029F0405C5F4F6F4F7F4F40781A8EFE1797
:1006000011F081E08A8F4D8F5E8F6F8F78A383E02A
:10061000898FCE0149960E94A104A096E2E10C9434
:100620000238A8E1B0E0E7E1F3E00C94EE3769832B
:100630007A838B839C832D833E834F835887B9E0D5
:10064000EB2EF12CEC0EFD1ECE010196B7010E949F
:1006500076058E010F5E1F4FCE010596B8010E94F0
:1006600076052985223008F47EC03989323010F4AD
:10067000B8017CC08A859A8989278A87243011F03D
:10068000223031F4231709F06EC06CEB70E06EC0BD
:10069000343039F41D861E861F86188A1C861B86F8
:1006A00004C0323021F484E08987B7015FC02B8514
:1006B0003C858B899C89281B390B3C872B87ED84D3
:1006C000FE840F851889AD88BE88CF88D88CEA143F
:1006D000FB040C051D0540F4EE0CFF1C001F111F50
:1006E000215030403C872B8720E030E040E050E054
:1006F00080E090E0A0E0B0E460E070E0EA14FB0489
:100700000C051D0540F0282B392B4A2B5B2BEA18D2
:10071000FB080C091D09B695A79597958795EE0CD2
:10072000FF1C001F111F6F5F7F4F6F31710531F785
:10073000DA01C9018F779070A070B0708034910594
:10074000A105B10561F427FD0AC0E114F10401051A
:10075000110529F0205C3F4F4F4F5F4F20782D87C8
:100760003E874F87588BBE01675F7F4FCB010E944A
:10077000A1046896EAE00C940A38A8E1B0E0E3EC42
:10078000F3E00C94F23769837A838B839C832D8307
:100790003E834F83588789E0E82EF12CEC0EFD1E36
:1007A000CE010196B7010E9476058E010F5E1F4FA4
:1007B000CE010596B8010E9476058985823040F009
:1007C0008989823028F0C701B8010E94EE0501C076
:1007D0008FEF6896E6E00C940E38A8E1B0E0E3EF06
:1007E000F3E00C94F23769837A838B839C832D83A7
:1007F0003E834F83588789E0E82EF12CEC0EFD1ED6
:10080000CE010196B7010E9476058E010F5E1F4F43
:10081000CE010596B8010E9476058985823040F0A8
:100820008989823028F0C701B8010E94EE0501C015
:100830008FEF6896E6E00C940E38A8E1B0E0E3E2B2
:10084000F4E00C94F23769837A838B839C832D8345
:100850003E834F83588789E0E82EF12CEC0EFD1E75
:10086000CE010196B7010E9476058E010F5E1F4FE3
:10087000CE010596B8010E9476058985823040F048
:100880008989823028F0C701B8010E94EE0501C0B5
:1008900081E06896E6E00C940E38ACE0B0E0E3E569
:1008A000F4E00C94F63769837A838B839C83CE01C2
:1008B0000196BE016B5F7F4F0E9476058D8182306D
:1008C00061F1823050F1843021F48E81882351F11E
:1008D0002EC02F81388537FD20C06E812F31310524
:1008E0001CF06623F9F023C08EE190E0821B930B8D
:1008F00029853A854B855C8504C056954795379583
:1009000027958A95D2F76623B1F05095409530959A
:1009100021953F4F4F4F5F4F0EC020E030E040E049
:1009200050E009C02FEF3FEF4FEF5FE704C020E03A
:1009300030E040E050E8B901CA012C96E2E00C94A6
:100940001238DF92EF92FF920F931F93FC01E48025
:10095000F58006811781D1808081823048F480E063
:1009600090E0A0E1B0E0E82AF92A0A2B1B2BA5C0F1
:10097000843009F49FC0823021F4EE24FF248701E3
:1009800005C0E114F1040105110519F4E0E0F0E0FF
:1009900096C0628173819FEF623879070CF05BC06B
:1009A00022E83FEF261B370B2A3131052CF020E0DF
:1009B00030E040E050E02AC0B801A701022E04C098
:1009C00076956795579547950A94D2F781E090E020
:1009D000A0E0B0E004C0880F991FAA1FBB1F2A9592
:1009E000D2F70197A109B1098E219F21A023B1233C
:1009F0000097A105B10521F081E090E0A0E0B0E012
:100A00009A01AB01282B392B4A2B5B2BDA01C90148
:100A10008F779070A070B07080349105A105B105FA
:100A200039F427FF09C0205C3F4F4F4F5F4F04C090
:100A3000215C3F4F4F4F5F4FE0E0F0E02030A0E0FF
:100A40003A07A0E04A07A0E45A0710F0E1E0F0E01E
:100A500079018A0127C06038710564F5FB01E1580E
:100A6000FF4FD801C7018F779070A070B0708034AD
:100A70009105A105B10539F4E7FE0DC080E490E0D1
:100A8000A0E0B0E004C08FE390E0A0E0B0E0E80EAA
:100A9000F91E0A1F1B1F17FF05C016950795F7942F
:100AA000E794319687E016950795F794E7948A9531
:100AB000D1F705C0EE24FF248701EFEFF0E06E2FA1
:100AC000679566276795902F9F77D794DD24D794F5
:100AD0008E2F8695492F462B582F5D29B701CA01C5
:100AE0001F910F91FF90EF90DF900895FC01DB01C3
:100AF000408151812281622F6F7770E0221F22276F
:100B0000221F9381892F880F822B282F30E0991F75
:100B10009927991F11969C93119721153105A9F5D5
:100B2000411551056105710511F482E037C082E875
:100B30009FEF13969C938E9312979A01AB0167E0F7
:100B4000220F331F441F551F6A95D1F783E08C9302
:100B50000DC0220F331F441F551F12968D919C917B
:100B60001397019713969C938E931297203080E0F1
:100B7000380780E0480780E4580758F314962D930F
:100B80003D934D935C93179708952F3F310579F46A
:100B9000411551056105710519F484E08C930895A0
:100BA00064FF03C081E08C9312C01C9210C02F57C9
:100BB000304013963C932E93129783E08C9387E0FA
:100BC000440F551F661F771F8A95D1F770641496DE
:100BD0004D935D936D937C93179708951F93DC015C
:100BE000FB019C91923008F447C08081823008F468
:100BF00043C0943051F411961C91843099F5818151
:100C0000682F70E0611B71093FC0843021F0923081
:100C100031F48230B9F18181882389F12DC0119698
:100C20001C9111978230F1F081811817D9F4129636
:100C30002D913C911397828193818217930794F0B1
:100C400028173907BCF014968D919D910D90BC9199
:100C5000A02D2481358146815781281739074A07FD
:100C60005B0718F4112341F00AC082179307A40709
:100C7000B50740F4112319F061E070E005C06FEF93
:100C80007FEF02C060E070E0CB011F910895DF9319
:100C9000CF9300D000D00F92CDB7DEB78A836B839D
:100CA00019828A81843018F081E0898332C08A8178
:100CB000282F30E03D832C838C819D8181309105EC
:100CC000D1F02C813D81223031052CF48C819D8125
:100CD000009761F01EC02C813D812230310581F0EA
:100CE0008C819D818330910581F013C0EBE3F0E0AE
:100CF0008B8180830EC0E8E3F0E08B81808309C0A4
:100D0000E5E3F0E08B81808304C0E2E3F0E08B81D7
:100D1000808389810F900F900F900F900F90CF914B
:100D2000DF910895DF93CF9300D000D000D0CDB7EE
:100D3000DEB78A837C836B8319828A81843018F0C2
:100D400081E089833AC08A81282F30E03E832D8359
:100D50008D819E8181309105E1F02D813E8122308F
:100D600031052CF48D819E81009761F026C02D8184
:100D70003E8122303105A1F08D819E818330910525
:100D8000B1F01BC0E9E3F0E08081EB81FC8180835E
:100D900014C0E6E3F0E08081EB81FC8180830DC02C
:100DA000E3E3F0E08081EB81FC81808306C0E0E337
:100DB000F0E08081EB81FC818083898126960FB6EB
:100DC000F894DEBF0FBECDBFCF91DF910895DF93C2
:100DD000CF93CDB7DEB728970FB6F894DEBF0FBE1E
:100DE000CDBF8A836B834C8319828C81813009F05B
:100DF0006FC08A81282F30E038872F838F819885B4
:100E00008130910549F12F813885223031052CF44C
:100E10008F819885009761F0D5C02F813885223069
:100E2000310571F18F81988583309105E9F1CAC050
:100E3000ABE3B0E0EBE3F0E08081482F8B81282F1B
:100E400030E081E090E0022E02C0880F991F0A94E2
:100E5000E2F7842B8C93B6C0A8E3B0E0E8E3F0E0BF
:100E60008081482F8B81282F30E081E090E0022E96
:100E700002C0880F991F0A94E2F7842B8C93A2C0BA
:100E8000A5E3B0E0E5E3F0E08081482F8B81282FD7
:100E900030E081E090E0022E02C0880F991F0A9492
:100EA000E2F7842B8C938EC0A2E3B0E0E2E3F0E0A3
:100EB0008081482F8B81282F30E081E090E0022E46
:100EC00002C0880F991F0A94E2F7842B8C937AC092
:100ED0008C81882309F074C08A81282F30E03E83FA
:100EE0002D838D819E818130910559F12D813E8127
:100EF000223031052CF48D819E81009769F062C00B
:100F00002D813E812230310589F18D819E81833092
:100F1000910509F440C056C0ABE3B0E0EBE3F0E06C
:100F20008081482F8B81282F30E081E090E0022ED5
:100F300002C0880F991F0A94E2F7809584238C934E
:100F400041C0A8E3B0E0E8E3F0E08081482F8B8166
:100F5000282F30E081E090E0022E02C0880F991F18
:100F60000A94E2F7809584238C932CC0A5E3B0E02B
:100F7000E5E3F0E08081482F8B81282F30E081E08D
:100F800090E0022E02C0880F991F0A94E2F7809524
:100F900084238C9317C0A2E3B0E0E2E3F0E0808109
:100FA000482F8B81282F30E081E090E0022E02C094
:100FB000880F991F0A94E2F7809584238C9302C0CE
:100FC00081E08983898128960FB6F894DEBF0FBE31
:100FD000CDBFCF91DF910895DF93CF93CDB7DEB72B
:100FE00027970FB6F894DEBF0FBECDBF8A836B8301
:100FF0005D834C8319828A81282F30E03F832E83C2
:101000004E815F814130510559F18E819F8182303F
:10101000910534F42E813F812115310569F05BC0C3
:101020004E815F814230510579F18E819F818330FD
:10103000910509F43DC04FC0E9E3F0E08081282F1D
:1010400030E08B81882F90E0A90102C0559547952B
:101050008A95E2F7CA018170EC81FD8180833BC0F3
:10106000E6E3F0E08081282F30E08B81882F90E04C
:10107000A90102C0559547958A95E2F7CA0181708A
:10108000EC81FD81808327C0E3E3F0E08081282F9D
:1010900030E08B81882F90E0A90102C055954795DB
:1010A0008A95E2F7CA018170EC81FD81808313C0CB
:1010B000E0E3F0E08081282F30E08B81882F90E002
:1010C000A90102C0559547958A95E2F7CA0181703A
:1010D000EC81FD818083898127960FB6F894DEBF6D
:1010E0000FBECDBFCF91DF910895DF93CF93CDB7E2
:1010F000DEB72F970FB6F894DEBF0FBECDBF8F8738
:1011000083E067E040E00E94E70683E066E040E0BD
:101110000E94E70682E06F850E94470683E065E053
:1011200041E00E94E70680E090E0A0E0B0E48B8719
:101130009C87AD87BE876B857C858D859E8520E0ED
:1011400030E04AEF54E40E941702DC01CB018F83A8
:101150009887A987BA876F81788589859A8520E0E5
:1011600030E040E85FE30E941D0488232CF481E016
:1011700090E09E838D833FC06F81788589859A85B5
:1011800020E03FEF4FE757E40E94BD0318164CF5EF
:101190006B857C858D859E8520E030E040E251E4C2
:1011A0000E941702DC01CB01BC01CD010E9441006D
:1011B000DC01CB019E838D830FC088EC90E09C8383
:1011C0008B838B819C810197F1F79C838B838D812D
:1011D0009E8101979E838D838D819E81009769F703
:1011E00014C06F81788589859A850E944100DC0151
:1011F000CB019E838D838D819E819A838983898192
:101200009A810197F1F79A83898383E065E040E052
:101210000E94E7062F960FB6F894DEBF0FBECDBF33
:10122000CF91DF910895DF93CF93CDB7DEB72F979E
:101230000FB6F894DEBF0FBECDBF8F8783E067E0A7
:1012400041E00E94E70683E066E040E00E94E70696
:1012500082E06F850E94470683E065E041E00E94DE
:10126000E70680E090E0A0E0B0E48B879C87AD8744
:10127000BE876B857C858D859E8520E030E04AEFBA
:1012800054E40E941702DC01CB018F839887A98761
:10129000BA876F81788589859A8520E030E040E8BB
:1012A0005FE30E941D0488232CF481E090E09E837C
:1012B0008D833FC06F81788589859A8520E03FEFD7
:1012C0004FE757E40E94BD0318164CF56B857C85EB
:1012D0008D859E8520E030E040E251E40E941702B7
:1012E000DC01CB01BC01CD010E944100DC01CB013E
:1012F0009E838D830FC088EC90E09C838B838B81D1
:101300009C810197F1F79C838B838D819E8101974E
:101310009E838D838D819E81009769F714C06F81B4
:10132000788589859A850E944100DC01CB019E83E6
:101330008D838D819E819A83898389819A8101978A
:10134000F1F79A83898383E065E040E00E94E70635
:101350002F960FB6F894DEBF0FBECDBFCF91DF91B1
:101360000895DF93CF93CDB7DEB7A6970FB6F89465
:10137000DEBF0FBECDBF80E090E0A0E2B2E48BA361
:101380009CA3ADA3BEA36BA17CA18DA19EA120E0D7
:1013900030E04AEF54E40E941702DC01CB018F8F4A
:1013A00098A3A9A3BAA36F8D78A189A19AA120E0DF
:1013B00030E040E85FE30E941D0488232CF481E0C4
:1013C00090E09E8F8D8F3FC06F8D78A189A19AA1EB
:1013D00020E03FEF4FE757E40E94BD0318164CF59D
:1013E0006BA17CA18DA19EA120E030E040E251E400
:1013F0000E941702DC01CB01BC01CD010E9441001B
:10140000DC01CB019E8F8D8F0FC088EC90E09C8F0C
:101410008B8F8B8D9C8D0197F1F79C8F8B8F8D8D92
:101420009E8D01979E8F8D8F8D8D9E8D009769F774
:1014300014C06F8D78A189A19AA10E944100DC019E
:10144000CB019E8F8D8F8D8D9E8D9A8F898F898DEB
:101450009A8D0197F1F79A8F898F88E30E9475081A
:1014600080E090E0A8E4B2E48D8B9E8BAF8BB88FC8
:101470006D897E898F89988D2BEA3AEA4AE250E499
:101480000E941702DC01CB01898B9A8BAB8BBC8B42
:1014900069897A898B899C8920E030E040E85FE3A4
:1014A0000E941D0488231CF481E0888B91C0698907
:1014B0007A898B899C8920E030E04FE753E40E94D1
:1014C000BD0318160CF07BC06D897E898F89988DBD
:1014D00020E030E04AE754E40E941103DC01CB0134
:1014E0008C879D87AE87BF876C857D858E859F8520
:1014F00020E030E04AEF54E40E941702DC01CB0107
:1015000088879987AA87BB87688579858A859B851F
:1015100020E030E040E85FE30E941D0488232CF4C3
:1015200081E090E09F838E833FC0688579858A85BE
:101530009B8520E03FEF4FE757E40E94BD0318165C
:101540004CF56C857D858E859F8520E030E040E2FE
:1015500051E40E941702DC01CB01BC01CD010E94C5
:101560004100DC01CB019F838E830FC088EC90E0AB
:101570009D838C838C819D810197F1F79D838C8362
:101580008E819F8101979F838E838E819F8100979B
:1015900069F724C0688579858A859B850E9441000A
:1015A000DC01CB019F838E838E819F819B838A8305
:1015B0008A819B810197F1F79B838A830FC0698998
:1015C0007A898B899C890E944100DC01CB01888B40
:1015D0008889898389818A95F1F789838CE00E94C3
:1015E000750881E00E947508A6960FB6F894DEBFD4
:1015F0000FBECDBFCF91DF910895DF93CF93CDB7CD
:10160000DEB768970FB6F894DEBF0FBECDBF988FD8
:101610008F8B8F89988D9E838D831C820DC08C81CA
:101620008F5F8C838D819E812AE030E0B9010E941A
:10163000D237CB019E838D838D819E81009779F770
:101640008F89988D9E838D831B821EC08B81E82F8E
:10165000F0E08D819E812AE030E0B9010E94D2370E
:10166000282F205DCE010796E80FF91F20838D817A
:101670009E812AE030E0B9010E94D237CB019E83DF
:101680008D838B818F5F8B839B818C819817F0F288
:101690008C81882F90E001979A8389830FC02981DC
:1016A0003A81CE010796FC01E20FF31F80810E9470
:1016B000130989819A8101979A83898389819A8103
:1016C00099236CF768960FB6F894DEBF0FBECDBFB6
:1016D000CF91DF910895DF93CF9300D00F92CDB7D4
:1016E000DEB79B838A8319820EC08981282F30E060
:1016F0008A819B81FC01E20FF31F80810E94130904
:1017000089818F5F89838981282F30E08A819B813D
:10171000FC01E20FF31F8081882339F70F900F90AF
:101720000F90CF91DF910895DF93CF9300D00F9268
:10173000CDB7DEB78A836B838A81882319F48B81C6
:10174000898306C08A81813019F48B81805C89830A
:10175000898180680E9475080F900F900F90CF913B
:10176000DF910895DF93CF93CDB7DEB727970FB6FC
:10177000F894DEBF0FBECDBF9C838B836D834E83F9
:101780002F838D81882F90E0880F991F880F991FD4
:10179000880F991F8A8319828A8180640E94750844
:1017A00019820EC08981282F30E08B819C81FC0139
:1017B000E20FF31F80810E94130989818F5F898363
:1017C0008981883078F38E816F810E94940B8D819E
:1017D0000E94130927960FB6F894DEBF0FBECDBF47
:1017E000CF91DF910895DF93CF93CDB7DEB781E03E
:1017F0000E947508CF91DF910895DF93CF93CDB705
:10180000DEB78EE00E947508CF91DF910895DF93D7
:10181000CF93CDB7DEB78CE00E947508CF91DF91F2
:101820000895DF93CF93CDB7DEB78FE00E947508A0
:10183000CF91DF910895DF93CF93CDB7DEB78CE0E2
:101840000E947508CF91DF910895DF93CF93CDB7B4
:10185000DEB788E00E947508CF91DF910895DF938D
:10186000CF9300D000D0CDB7DEB78A836B834C8393
:1018700019828C8189830BC099818B81692F0E9489
:10188000940B80E20E9413098981815089838981A8
:10189000482F552747FD50958C81282F30E08A81AD
:1018A000882F90E0B901681B790BCB01841795074D
:1018B0001CF30F900F900F900F90CF91DF91089530
:1018C000DF93CF9300D000D0CDB7DEB78A836B8390
:1018D0004C8319828C8189830AC08B8169810E9423
:1018E000940B80E20E94130989818F5F898389812B
:1018F000482F50E08C81282F30E08A81882F90E09B
:10190000820F931F4817590744F30F900F900F90C1
:101910000F90CF91DF910895DF93CF93CDB7DEB7CE
:10192000EAE3F0E08FEF8083E7E3F0E01082E4E3A6
:10193000F0E08FEF8083E1E3F0E08FEF8083EBE373
:10194000F0E01082E8E3F0E01082E5E3F0E01082DE
:10195000E2E3F0E01082CF91DF9108950F931F939F
:10196000DF93CF93CDB7DEB7C55FD3400FB6F89402
:10197000DEBF0FBECDBF0E948C0C0E94B10980E279
:101980000E941309CE0187569D4F28E0FC01DF011C
:10199000822F1D928A95E9F7CE018F559D4FC7582A
:1019A000DC4F99838883C957D340A4E8B1E0C55878
:1019B000DC4FB983A883CB57D340B8E0C358DC4F82
:1019C000B883CD57D340C558DC4FE881F981CB5758
:1019D000D3400080C558DC4F88819981CB57D340D4
:1019E0000196C558DC4F99838883CB57D340C7589D
:1019F000DC4FA881B981C957D3400C92C758DC4F3E
:101A0000E881F981C957D3403196C758DC4FF98333
:101A1000E883C957D340C358DC4FF881CD57D34032
:101A2000F150C358DC4FF883CD57D340C358DC4F37
:101A30008881CD57D340882331F6CE0187559D4FFD
:101A4000C258DC4F99838883CE57D340ACE7B1E0CE
:101A5000C058DC4FB983A883C058D340B8E0CE57F4
:101A6000DC4FB883C258D340C058DC4FE881F981BD
:101A7000C058D3400080C058DC4F88819981C0583D
:101A8000D3400196C058DC4F99838883C058D34017
:101A9000C258DC4FA881B981CE57D3400C92C258AE
:101AA000DC4FE881F981CE57D3403196C258DC4FE4
:101AB000F983E883CE57D340CE57DC4FF881C25824
:101AC000D340F150CE57DC4FF883C258D340CE57A5
:101AD000DC4F8881C258D340882331F6CE018F5421
:101AE0009D4FCD57DC4F99838883C358D340A4E7DB
:101AF000B1E0CB57DC4FB983A883C558D340B8E0D9
:101B0000C957DC4FB883C758D340CB57DC4FE88167
:101B1000F981C558D3400080CB57DC4F888199812B
:101B2000C558D3400196CB57DC4F99838883C5585D
:101B3000D340CD57DC4FA881B981C358D3400C9214
:101B4000CD57DC4FE881F981C358D3403196CD574A
:101B5000DC4FF983E883C358D340C957DC4FF88181
:101B6000C758D340F150C957DC4FF883C758D3400A
:101B7000C957DC4F8881C758D340882331F6CE013E
:101B800087549D4FC857DC4F99838883C858D340EA
:101B9000ACE6B1E0C657DC4FB983A883CA58D3403E
:101BA000B8E0C457DC4FB883CC58D340C657DC4F9D
:101BB000E881F981CA58D3400080C657DC4F88813C
:101BC0009981CA58D3400196C657DC4F99838883C0
:101BD000CA58D340C857DC4FA881B981C858D340F0
:101BE0000C92C857DC4FE881F981C858D340319630
:101BF000C857DC4FF983E883C858D340C457DC4F3B
:101C0000F881CC58D340F150C457DC4FF883CC58FE
:101C1000D340C457DC4F8881CC58D340882331F659
:101C2000CE018F539D4F28E0FC01DF01822F1D92D2
:101C30008A95E9F7FE01EF53FD4F8EE18083CE01D7
:101C400087539D4F28E0FC01DF01822F1D928A956A
:101C5000E9F7FE01E753FD4F84E08083CE018F5208
:101C60009D4FC357DC4F99838883CD58D340A4E65A
:101C7000B1E0C157DC4FB983A883CF58D340B8E057
:101C8000CF56DC4FB883C159D340C157DC4FE881F0
:101C9000F981CF58D3400080C157DC4F88819981AA
:101CA000CF58D3400196C157DC4F99838883CF58D2
:101CB000D340C357DC4FA881B981CD58D3400C9293
:101CC000C357DC4FE881F981CD58D3403196C357D3
:101CD000DC4FF983E883CD58D340CF56DC4FF881F1
:101CE000C159D340F150CF56DC4FF883C159D3408E
:101CF000CF56DC4F8881C159D340882331F6CE01BD
:101D000087529D4FCE56DC4F99838883C259D3406A
:101D1000ACE5B1E0CC56DC4FB983A883C459D340BD
:101D2000B8E0CA56DC4FB883C659D340CC56DC4F16
:101D3000E881F981C459D3400080CC56DC4F8881BA
:101D40009981C459D3400196CC56DC4F998388833E
:101D5000C459D340CE56DC4FA881B981C259D34073
:101D60000C92CE56DC4FE881F981C259D3403196AE
:101D7000CE56DC4FF983E883C259D340CA56DC4FB4
:101D8000F881C659D340F150CA56DC4FF883C65982
:101D9000D340CA56DC4F8881C659D340882331F6D8
:101DA000CE018F519D4FC956DC4F99838883C75907
:101DB000D340A4E5B1E0C756DC4FB983A883C95925
:101DC000D340B8E0C556DC4FB883CB59D340C75693
:101DD000DC4FE881F981C959D3400080C756DC4FF8
:101DE00088819981C959D3400196C756DC4F9983A0
:101DF0008883C959D340C956DC4FA881B981C759D6
:101E0000D3400C92C956DC4FE881F981C759D340C1
:101E10003196C956DC4FF983E883C759D340C5567C
:101E2000DC4FF881CB59D340F150C556DC4FF883D5
:101E3000CB59D340C556DC4F8881CB59D34088233A
:101E400031F6CE0187519D4FC456DC4F998388836C
:101E5000CC59D340ACE4B1E0C256DC4FB983A8837F
:101E6000CE59D340B8E0C056DC4FB883C05AD340F7
:101E7000C256DC4FE881F981CE59D3400080C2566A
:101E8000DC4F88819981CE59D3400196C256DC4FF0
:101E900099838883CE59D340C456DC4FA881B98139
:101EA000CC59D3400C92C456DC4FE881F981CC590F
:101EB000D3403196C456DC4FF983E883CC59D340E4
:101EC000C056DC4FF881C05AD340F150C056DC4FA9
:101ED000F883C05AD340C056DC4F8881C05AD340E3
:101EE000882331F6CE018F509D4FCF55DC4F99831B
:101EF0008883C15AD340A4E4B1E0CD55DC4FB98307
:101F0000A883C35AD340B8E0CB55DC4FB883C55A39
:101F1000D340CD55DC4FE881F981C35AD3400080CE
:101F2000CD55DC4F88819981C35AD3400196CD5558
:101F3000DC4F99838883C35AD340CF55DC4FA881A7
:101F4000B981C15AD3400C92CF55DC4FE881F98159
:101F5000C15AD3403196CF55DC4FF983E883C15A3B
:101F6000D340CB55DC4FF881C55AD340F150CB5507
:101F7000DC4FF883C55AD340CB55DC4F8881C55A16
:101F8000D340882331F6CE0187509D4FCA55DC4F90
:101F900099838883C65AD340ACE3B1E0C855DC4F7F
:101FA000B983A883C85AD340B8E0C655DC4FB8837C
:101FB000CA5AD340C855DC4FE881F981C85AD3408A
:101FC0000080C855DC4F88819981C85AD34001965A
:101FD000C855DC4F99838883C85AD340CA55DC4F13
:101FE000A881B981C65AD3400C92CA55DC4FE8810A
:101FF000F981C65AD3403196CA55DC4FF983E8833C
:10200000C65AD340C655DC4FF881CA5AD340F15066
:10201000C655DC4FF883CA5AD340C655DC4F888179
:10202000CA5AD340882331F6CE018F5F9C4FC555E5
:10203000DC4F99838883CB5AD340A4E3B1E0C355E6
:10204000DC4FB983A883CD5AD340B8E0C155DC4FEB
:10205000B883CF5AD340C355DC4FE881F981CD5ABC
:10206000D3400080C355DC4F88819981CD5AD3403D
:102070000196C355DC4F99838883CD5AD340C5550B
:10208000DC4FA881B981CB5AD3400C92C555DC4FA7
:10209000E881F981CB5AD3403196C555DC4FF9839D
:1020A000E883CB5AD340C155DC4FF881CF5AD34097
:1020B000F150C155DC4FF883CF5AD340C155DC4FA6
:1020C0008881CF5AD340882331F6CE01875F9C4F59
:1020D000C055DC4F99838883C05BD340ACE2B1E04C
:1020E000CE54DC4FB983A883C25BD340B8E0CC5454
:1020F000DC4FB883C45BD340CE54DC4FE881F98118
:10210000C25BD3400080CE54DC4F88819981C25B92
:10211000D3400196CE54DC4F99838883C25BD34071
:10212000C055DC4FA881B981C05BD3400C92C0552B
:10213000DC4FE881F981C05BD3403196C055DC4F5C
:10214000F983E883C05BD340CC54DC4FF881C45B97
:10215000D340F150CC54DC4FF883C45BD340CC5413
:10216000DC4F8881C45BD340882331F6CE018F5E7B
:102170009C4FCB54DC4F99838883C55BD340A4E24A
:10218000B1E0C954DC4FB983A883C75BD340B8E042
:10219000C754DC4FB883C95BD340C954DC4FE881D6
:1021A000F981C75BD3400080C954DC4F8881998195
:1021B000C75BD3400196C954DC4F99838883C75BC2
:1021C000D340CB54DC4FA881B981C55BD3400C927E
:1021D000CB54DC4FE881F981C55BD3403196CB54B9
:1021E000DC4FF983E883C55BD340C754DC4FF881EB
:1021F000C95BD340F150C754DC4FF883C95BD3406F
:10220000C754DC4F8881C95BD340882331F6CE01A7
:10221000875E9C4FC654DC4F99838883CA5BD3404A
:10222000ACE1B1E0C454DC4FB983A883CC5BD340AC
:10223000B8E0C254DC4FB883CE5BD340C454DC4F0B
:10224000E881F981CC5BD3400080C454DC4F8881A5
:102250009981CC5BD3400196C454DC4F9983888329
:10226000CC5BD340C654DC4FA881B981CA5BD34054
:102270000C92C654DC4FE881F981CA5BD340319699
:10228000C654DC4FF983E883CA5BD340C254DC4FA9
:10229000F881CE5BD340F150C254DC4FF883CE5B63
:1022A000D340C254DC4F8881CE5BD340882331F6C3
:1022B000CE018F5D9C4FC154DC4F99838883CF5BE7
:1022C000D340A4E1B1E0CF53DC4FB983A883C15C14
:1022D000D340B8E0CD53DC4FB883C35CD340CF5379
:1022E000DC4FE881F981C15CD3400080CF53DC4FE3
:1022F00088819981C15CD3400196CF53DC4F99838B
:102300008883C15CD340C154DC4FA881B981CF5BC5
:10231000D3400C92C154DC4FE881F981CF5BD340AC
:102320003196C154DC4FF983E883CF5BD340CD5362
:10233000DC4FF881C35CD340F150CD53DC4FF883C0
:10234000C35CD340CD53DC4F8881C35CD34088232A
:1023500031F6CE01875D9C4FCC53DC4F9983888347
:10236000C45CD340ACE0B1E0CA53DC4FB983A8836E
:10237000C65CD340B8E0C853DC4FB883C85CD340D8
:10238000CA53DC4FE881F981C65CD3400080CA5350
:10239000DC4F88819981C65CD3400196CA53DC4FDB
:1023A00099838883C65CD340CC53DC4FA881B98124
:1023B000C45CD3400C92CC53DC4FE881F981C45CFF
:1023C000D3403196CC53DC4FF983E883C45CD340CF
:1023D000C853DC4FF881C85CD340F150C853DC4F80
:1023E000F883C85CD340C853DC4F8881C85CD340B5
:1023F000882331F6CE018F5C9C4FC753DC4F998305
:102400008883C95CD340A4E0B1E0C553DC4FB983F5
:10241000A883CB5CD340B8E0C353DC4FB883CD5C1A
:10242000D340C553DC4FE881F981CB5CD3400080B9
:10243000C553DC4F88819981CB5CD3400196C5534D
:10244000DC4F99838883CB5CD340C753DC4FA88192
:10245000B981C95CD3400C92C753DC4FE881F98144
:10246000C95CD3403196C753DC4FF983E883C95C1C
:10247000D340C353DC4FF881CD5CD340F150C353FC
:10248000DC4FF883CD5CD340C353DC4F8881CD5CF7
:10249000D340882331F6CE01875C9C4FC253DC4F7A
:1024A00099838883CE5CD340ACEFB0E0C053DC4F5F
:1024B000B983A883C05DD340B8E0CE52DC4FB88367
:1024C000C25DD340C053DC4FE881F981C05DD34089
:1024D0000080C053DC4F88819981C05DD340019654
:1024E000C053DC4F99838883C05DD340C253DC4F17
:1024F000A881B981CE5CD3400C92C253DC4FE881F5
:10250000F981CE5CD3403196C253DC4FF983E88326
:10251000CE5CD340CE52DC4FF881C25DD340F15047
:10252000CE52DC4FF883C25DD340CE52DC4F88815F
:10253000C25DD340882331F6CE018F5B9C4FCD52D4
:10254000DC4F99838883C35DD340A4EFB0E0CB52C6
:10255000DC4FB983A883C55DD340B8E0C952DC4FD6
:10256000B883C75DD340CB52DC4FE881F981C55DAC
:10257000D3400080CB52DC4F88819981C55DD34028
:102580000196CB52DC4F99838883C55DD340CD52F1
:10259000DC4FA881B981C35DD3400C92CD52DC4F92
:1025A000E881F981C35DD3403196CD52DC4FF98388
:1025B000E883C35DD340C952DC4FF881C75DD34087
:1025C000F150C952DC4FF883C75DD340C952DC4F8C
:1025D0008881C75DD340882331F6CE01875B9C4F4D
:1025E000C852DC4F99838883C85DD340ACEEB0E01D
:1025F000C652DC4FB983A883CA5DD340B8E0C45249
:10260000DC4FB883CC5DD340C652DC4FE881F98102
:10261000CA5DD3400080C652DC4F88819981CA5D73
:10262000D3400196C652DC4F99838883CA5DD3405C
:10263000C852DC4FA881B981C85DD3400C92C85202
:10264000DC4FE881F981C85DD3403196C852DC4F38
:10265000F983E883C85DD340C452DC4FF881CC5D78
:10266000D340F150C452DC4FF883CC5DD340C45208
:10267000DC4F8881CC5DD340882331F6CE018F5A60
:102680009C4FC352DC4F99838883CD5DD340A4EE29
:10269000B0E0C152DC4FB983A883CF5DD340B8E02E
:1026A000CF51DC4FB883C15ED340C152DC4FE881CB
:1026B000F981CF5DD3400080C152DC4F8881998180
:1026C000CF5DD3400196C152DC4F99838883CF5DA3
:1026D000D340C352DC4FA881B981CD5DD3400C9269
:1026E000C352DC4FE881F981CD5DD3403196C352AE
:1026F000DC4FF983E883CD5DD340CF51DC4FF881C7
:10270000C15ED340F150CF51DC4FF883C15ED3405E
:10271000CF51DC4F8881C15ED340882331F6CE0192
:10272000875A9C4FCE51DC4F99838883C25ED34039
:10273000ACEDB0E0CC51DC4FB983A883C45ED3408C
:10274000B8E0CA51DC4FB883C65ED340CC51DC4FF1
:10275000E881F981C45ED3400080CC51DC4F888190
:102760009981C45ED3400196CC51DC4F9983888314
:10277000C45ED340CE51DC4FA881B981C25ED34044
:102780000C92CE51DC4FE881F981C25ED340319684
:10279000CE51DC4FF983E883C25ED340CA51DC4F8F
:1027A000F881C65ED340F150CA51DC4FF883C65E53
:1027B000D340CA51DC4F8881C65ED340882331F6AE
:1027C000CE018F599C4FC951DC4F99838883C75ED6
:1027D000D340A4EDB0E0C751DC4FB983A883C95EF4
:1027E000D340B8E0C551DC4FB883CB5ED340C7516E
:1027F000DC4FE881F981C95ED3400080C751DC4FCE
:1028000088819981C95ED3400196C751DC4F998375
:102810008883C95ED340C951DC4FA881B981C75EA6
:10282000D3400C92C951DC4FE881F981C75ED34097
:102830003196C951DC4FF983E883C75ED340C55157
:10284000DC4FF881CB5ED340F150C551DC4FF883AB
:10285000CB5ED340C551DC4F8881CB5ED34088230B
:1028600031F6CE0187599C4FC451DC4F9983888340
:10287000CC5ED340ACECB0E0C251DC4FB983A8834E
:10288000CE5ED340B8E0C051DC4FB883C05FD340C8
:10289000C251DC4FE881F981CE5ED3400080C25145
:1028A000DC4F88819981CE5ED3400196C251DC4FC6
:1028B00099838883CE5ED340C451DC4FA881B9810F
:1028C000CC5ED3400C92C451DC4FE881F981CC5EE0
:1028D000D3403196C451DC4FF983E883CC5ED340BA
:1028E000C051DC4FF881C05FD340F150C051DC4F84
:1028F000F883C05FD340C051DC4F8881C05FD340B4
:10290000882331F6CE018F589C4FCF50DC4F9983EE
:102910008883C15FD340A4ECB0E0CD50DC4FB983D5
:10292000A883C35FD340B8E0CB50DC4FB883C55F0A
:10293000D340CD50DC4FE881F981C35FD3400080A4
:10294000CD50DC4F88819981C35FD3400196CD5033
:10295000DC4F99838883C35FD340CF50DC4FA8817D
:10296000B981C15FD3400C92CF50DC4FE881F9812F
:10297000C15FD3403196CF50DC4FF983E883C15F0C
:10298000D340CB50DC4FF881C55FD340F150CB50E2
:10299000DC4FF883C55FD340CB50DC4F8881C55FE7
:1029A000D340882331F6FE01E956FD4F80E690E0E2
:1029B000918380838DE690E00E946B0BFE01E157CE
:1029C000FD4F80E090E0AAE7B4E480839183A28386
:1029D000B3838E0105571D4FFE01E157FD4F608106
:1029E00071818281938120E030E04AEF54E40E94BB
:1029F0001702DC01CB01F80180839183A283B383AA
:102A0000FE01E557FD4F608171818281938120E055
:102A100030E040E85FE30E941D04882344F4FE0197
:102A2000E757FD4F81E090E09183808364C0FE0111
:102A3000E557FD4F608171818281938120E03FEFF6
:102A40004FE757E40E94BD0318160CF043C0FE0187
:102A5000E157FD4F608171818281938120E030E0F8
:102A600040E251E40E941702DC01CB018E010757BE
:102A70001D4FBC01CD010E944100DC01CB01F801DA
:102A8000918380831FC0FE01E957FD4F88EC90E0E1
:102A900091838083FE01E957FD4F808191810197E9
:102AA000F1F7FE01E957FD4F91838083DE01A757BF
:102AB000BD4FFE01E757FD4F80819181019711962F
:102AC0009C938E93FE01E757FD4F80819181009783
:102AD000D1F627C08E0107571D4FFE01E557FD4F68
:102AE00060817181828193810E944100DC01CB0170
:102AF000F80191838083DE01AB57BD4FFE01E7579C
:102B0000FD4F808191818D939C93FE01EB57FD4F8A
:102B1000808191810197F1F7FE01EB57FD4F918381
:102B2000808381E00E9475088CE790E00E946B0B27
:102B3000FE01EF57FD4F80E090E0AAE7B4E4808308
:102B40009183A283B3838E0103581D4FFE01EF577B
:102B5000FD4F608171818281938120E030E04AEFF6
:102B600054E40E941702DC01CB01F80180839183B9
:102B7000A283B383FE01E358FD4F6081718182819E
:102B8000938120E030E040E85FE30E941D04882349
:102B900044F4FE01E558FD4F81E090E0918380838D
:102BA00064C0FE01E358FD4F608171818281938191
:102BB00020E03FEF4FE757E40E94BD0318160CF0EA
:102BC00043C0FE01EF57FD4F608171818281938187
:102BD00020E030E040E251E40E941702DC01CB012A
:102BE0008E0105581D4FBC01CD010E944100DC0142
:102BF000CB01F801918380831FC0FE01E758FD4F90
:102C000088EC90E091838083FE01E758FD4F80813E
:102C100091810197F1F7FE01E758FD4F9183808381
:102C2000DE01A558BD4FFE01E558FD4F8081918121
:102C3000019711969C938E93FE01E558FD4F80817C
:102C400091810097D1F627C08E0105581D4FFE01D6
:102C5000E358FD4F60817181828193810E94410020
:102C6000DC01CB01F80191838083DE01A958BD4FBF
:102C7000FE01E558FD4F808191818D939C93FE016B
:102C8000E958FD4F808191810197F1F7FE01E958E4
:102C9000FD4F9183808381E00E947508CE018752A9
:102CA0009D4F60E040E020E00E94B20BCE018F51CA
:102CB0009D4F61E041E020E00E94B20BFE01ED5823
:102CC000FD4F80E090E0AAEFB3E480839183A2837C
:102CD000B3838E0101591D4FFE01ED58FD4F6081F8
:102CE00071818281938120E030E04AEF54E40E94B8
:102CF0001702DC01CB01F80180839183A283B383A7
:102D0000FE01E159FD4F608171818281938120E054
:102D100030E040E85FE30E941D04882344F4FE0194
:102D2000E359FD4F81E090E09183808364C0FE0110
:102D3000E159FD4F608171818281938120E03FEFF5
:102D40004FE757E40E94BD0318160CF043C0FE0184
:102D5000ED58FD4F608171818281938120E030E0E8
:102D600040E251E40E941702DC01CB018E010359BD
:102D70001D4FBC01CD010E944100DC01CB01F801D7
:102D8000918380831FC0FE01E559FD4F88EC90E0E0
:102D900091838083FE01E559FD4F808191810197E8
:102DA000F1F7FE01E559FD4F91838083DE01A359C0
:102DB000BD4FFE01E359FD4F80819181019711962E
:102DC0009C938E93FE01E359FD4F80819181009782
:102DD000D1F627C08E0103591D4FFE01E159FD4F69
:102DE00060817181828193810E944100DC01CB016D
:102DF000F80191838083DE01A759BD4FFE01E3599D
:102E0000FD4F808191818D939C93FE01E759FD4F89
:102E1000808191810197F1F7FE01E759FD4F918380
:102E2000808381E00E947508FE01EB56FD4F81E032
:102E300080830FC3CE0187529D4FFE01EB56FD4F9D
:102E400060E040E020810E94B20BCE018F5E9C4F7B
:102E5000FE01EB56FD4F61E041E020810E94B20B84
:102E6000FE01EB59FD4F80E090E0A8ECB2E48083D6
:102E70009183A283B3838E010F591D4FFE01EB593D
:102E8000FD4F608171818281938120E030E04AEFC3
:102E900054E40E941702DC01CB01F8018083918386
:102EA000A283B383FE01EF59FD4F6081718182815E
:102EB000938120E030E040E85FE30E941D04882316
:102EC00044F4FE01E15AFD4F81E090E0918380835C
:102ED00064C0FE01EF59FD4F608171818281938151
:102EE00020E03FEF4FE757E40E94BD0318160CF0B7
:102EF00043C0FE01EB59FD4F608171818281938156
:102F000020E030E040E251E40E941702DC01CB01F6
:102F10008E01015A1D4FBC01CD010E944100DC0110
:102F2000CB01F801918380831FC0FE01E35AFD4F5E
:102F300088EC90E091838083FE01E35AFD4F80810D
:102F400091810197F1F7FE01E35AFD4F9183808350
:102F5000DE01A15ABD4FFE01E15AFD4F80819181F2
:102F6000019711969C938E93FE01E15AFD4F80814B
:102F700091810097D1F627C08E01015A1D4FFE01A5
:102F8000EF59FD4F60817181828193810E944100E0
:102F9000DC01CB01F80191838083DE01A55ABD4F8E
:102FA000FE01E15AFD4F808191818D939C93FE013A
:102FB000E55AFD4F808191810197F1F7FE01E55AB5
:102FC000FD4F91838083CE01875E9C4FFE01EB56BF
:102FD000FD4F61E041E020810E94B20BFE01E95A01
:102FE000FD4F80E090E0A6E1B3E480839183A2836B
:102FF000B3838E010D5A1D4FFE01E95AFD4F6081CA
:1030000071818281938120E030E04AEF54E40E9494
:103010001702DC01CB01F80180839183A283B38383
:10302000FE01ED5AFD4F608171818281938120E024
:1030300030E040E85FE30E941D04882344F4FE0171
:10304000EF5AFD4F81E090E09183808364C0FE01E0
:10305000ED5AFD4F608171818281938120E03FEFC5
:103060004FE757E40E94BD0318160CF043C0FE0161
:10307000E95AFD4F608171818281938120E030E0C7
:1030800040E251E40E941702DC01CB018E010F5A8D
:103090001D4FBC01CD010E944100DC01CB01F801B4
:1030A000918380831FC0FE01E15BFD4F88EC90E0BF
:1030B00091838083FE01E15BFD4F808191810197C7
:1030C000F1F7FE01E15BFD4F91838083DE01AF5A92
:1030D000BD4FFE01EF5AFD4F8081918101971196FE
:1030E0009C938E93FE01EF5AFD4F80819181009752
:1030F000D1F627C08E010F5A1D4FFE01ED5AFD4F2C
:1031000060817181828193810E944100DC01CB0149
:10311000F80191838083DE01A35BBD4FFE01EF5A6E
:10312000FD4F808191818D939C93FE01E35BFD4F68
:10313000808191810197F1F7FE01E35BFD4F91835F
:103140008083CE01875D9C4FFE01EB56FD4F61E011
:1031500041E020810E94B20BFE01E75BFD4F80E061
:1031600090E0A8ECB2E480839183A283B3838E01C4
:103170000B5B1D4FFE01E75BFD4F6081718182811A
:10318000938120E030E04AEF54E40E941702DC0112
:10319000CB01F80180839183A283B383FE01EB5BB3
:1031A000FD4F608171818281938120E030E040E8B1
:1031B0005FE30E941D04882344F4FE01ED5BFD4F94
:1031C00081E090E09183808364C0FE01EB5BFD4F62
:1031D000608171818281938120E03FEF4FE757E466
:1031E0000E94BD0318160CF043C0FE01E75BFD4FC3
:1031F000608171818281938120E030E040E251E47E
:103200000E941702DC01CB018E010D5B1D4FBC013A
:10321000CD010E944100DC01CB01F8019183808344
:103220001FC0FE01EF5BFD4F88EC90E0918380832F
:10323000FE01EF5BFD4F808191810197F1F7FE0167
:10324000EF5BFD4F91838083DE01AD5BBD4FFE01DF
:10325000ED5BFD4F80819181019711969C938E9338
:10326000FE01ED5BFD4F808191810097D1F627C073
:103270008E010D5B1D4FFE01EB5BFD4F6081718187
:10328000828193810E944100DC01CB01F80191838E
:103290008083DE01A15CBD4FFE01ED5BFD4F8081AF
:1032A00091818D939C93FE01E15CFD4F8081918122
:1032B0000197F1F7FE01E15CFD4F91838083CE0120
:1032C0008F5D9C4FFE01EB56FD4F61E041E0208198
:1032D0000E94B20BFE01E55CFD4F80E090E0A8E4A7
:1032E000B3E480839183A283B3838E01095C1D4F75
:1032F000FE01E55CFD4F608171818281938120E058
:1033000030E04AEF54E40E941702DC01CB01F801DF
:1033100080839183A283B383FE01E95CFD4F6081CA
:1033200071818281938120E030E040E85FE30E9478
:103330001D04882344F4FE01EB5CFD4F81E090E026
:103340009183808364C0FE01E95CFD4F60817181DF
:103350008281938120E03FEF4FE757E40E94BD0355
:1033600018160CF043C0FE01E55CFD4F60817181D1
:103370008281938120E030E040E251E40E94170214
:10338000DC01CB018E010B5C1D4FBC01CD010E9405
:103390004100DC01CB01F801918380831FC0FE0155
:1033A000ED5CFD4F88EC90E091838083FE01ED5C45
:1033B000FD4F808191810197F1F7FE01ED5CFD4F9A
:1033C00091838083DE01AB5CBD4FFE01EB5CFD4F62
:1033D00080819181019711969C938E93FE01EB5C05
:1033E000FD4F808191810097D1F627C08E010B5C43
:1033F0001D4FFE01E95CFD4F6081718182819381E7
:103400000E944100DC01CB01F80191838083DE0141
:10341000AF5CBD4FFE01EB5CFD4F808191818D93D0
:103420009C93FE01EF5CFD4F808191810197F1F744
:10343000FE01EF5CFD4F9183808381E00E9475085F
:10344000DE01AB56BD4FFE01EB56FD4F80818F5F15
:103450008C93FE01EB56FD4F80818F3008F4EACC4F
:10346000CE0187529D4F60E040E02FE00E94B20BFA
:10347000CE018F519D4F61E041E02FE00E94B20BE1
:10348000FE01E35DFD4F80E090E0AAEFB3E48083AE
:103490009183A283B3838E01075D1D4FFE01E35D1F
:1034A000FD4F608171818281938120E030E04AEF9D
:1034B00054E40E941702DC01CB01F8018083918360
:1034C000A283B383FE01E75DFD4F6081718182813C
:1034D000938120E030E040E85FE30E941D048823F0
:1034E00044F4FE01E95DFD4F81E090E0918380832B
:1034F00064C0FE01E75DFD4F60817181828193812F
:1035000020E03FEF4FE757E40E94BD0318160CF090
:1035100043C0FE01E35DFD4F608171818281938133
:1035200020E030E040E251E40E941702DC01CB01D0
:103530008E01095D1D4FBC01CD010E944100DC01DF
:10354000CB01F801918380831FC0FE01EB5DFD4F2D
:1035500088EC90E091838083FE01EB5DFD4F8081DC
:1035600091810197F1F7FE01EB5DFD4F918380831F
:10357000DE01A95DBD4FFE01E95DFD4F80819181B6
:10358000019711969C938E93FE01E95DFD4F80811A
:1035900091810097D1F627C08E01095D1D4FFE0174
:1035A000E75DFD4F60817181828193810E944100BE
:1035B000DC01CB01F80191838083DE01AD5DBD4F5D
:1035C000FE01E95DFD4F808191818D939C93FE0109
:1035D000ED5DFD4F808191810197F1F7FE01ED5D79
:1035E000FD4F9183808381E00E947508FE01EC56B7
:1035F000FD4F8EE080830FC3FE01EC56FD4F20810E
:10360000CE0187529D4F60E040E00E94B20BFE0168
:10361000EC56FD4F2081CE018F5D9C4F61E041E073
:103620000E94B20BFE01E15EFD4F80E090E0A8EC4D
:10363000B2E480839183A283B3838E01055E1D4F24
:10364000FE01E15EFD4F608171818281938120E006
:1036500030E04AEF54E40E941702DC01CB01F8018C
:1036600080839183A283B383FE01E55EFD4F608179
:1036700071818281938120E030E040E85FE30E9425
:103680001D04882344F4FE01E75EFD4F81E090E0D5
:103690009183808364C0FE01E55EFD4F608171818E
:1036A0008281938120E03FEF4FE757E40E94BD0302
:1036B00018160CF043C0FE01E15EFD4F6081718180
:1036C0008281938120E030E040E251E40E941702C1
:1036D000DC01CB018E01075E1D4FBC01CD010E94B4
:1036E0004100DC01CB01F801918380831FC0FE0102
:1036F000E95EFD4F88EC90E091838083FE01E95EF6
:10370000FD4F808191810197F1F7FE01E95EFD4F48
:1037100091838083DE01A75EBD4FFE01E75EFD4F12
:1037200080819181019711969C938E93FE01E75EB3
:10373000FD4F808191810097D1F627C08E01075EF1
:103740001D4FFE01E55EFD4F608171818281938195
:103750000E944100DC01CB01F80191838083DE01EE
:10376000AB5EBD4FFE01E75EFD4F808191818D9381
:103770009C93FE01EB5EFD4F808191810197F1F7F3
:10378000FE01EB5EFD4F91838083FE01EC56FD4F01
:103790002081CE01875E9C4F61E041E00E94B20B28
:1037A000FE01EF5EFD4F80E090E0A6E1B3E4808390
:1037B0009183A283B3838E01035F1D4FFE01EF5EF1
:1037C000FD4F608171818281938120E030E04AEF7A
:1037D00054E40E941702DC01CB01F801808391833D
:1037E000A283B383FE01E35FFD4F6081718182811B
:1037F000938120E030E040E85FE30E941D048823CD
:1038000044F4FE01E55FFD4F81E090E09183808309
:1038100064C0FE01E35FFD4F60817181828193810D
:1038200020E03FEF4FE757E40E94BD0318160CF06D
:1038300043C0FE01EF5EFD4F608171818281938103
:1038400020E030E040E251E40E941702DC01CB01AD
:103850008E01055F1D4FBC01CD010E944100DC01BE
:10386000CB01F801918380831FC0FE01E75FFD4F0C
:1038700088EC90E091838083FE01E75FFD4F8081BB
:1038800091810197F1F7FE01E75FFD4F91838083FE
:10389000DE01A55FBD4FFE01E55FFD4F8081918197
:1038A000019711969C938E93FE01E55FFD4F8081F9
:1038B00091810097D1F627C08E01055F1D4FFE0153
:1038C000E35FFD4F60817181828193810E9441009D
:1038D000DC01CB01F80191838083DE01A95FBD4F3C
:1038E000FE01E55FFD4F808191818D939C93FE01E8
:1038F000E95FFD4F808191810197F1F7FE01E95F5A
:10390000FD4F91838083FE01EC56FD4F2081CE0157
:103910008F5C9C4F61E041E00E94B20BFE01ED5FC5
:10392000FD4F80E090E0A8E4B3E480839183A2831C
:10393000B3838E0101501E4FFE01ED5FFD4F60818C
:1039400071818281938120E030E04AEF54E40E944B
:103950001702DC01CB01F80180839183A283B3833A
:10396000FE01E150FE4F608171818281938120E0F0
:1039700030E040E85FE30E941D04882344F4FE0128
:10398000E350FE4F81E090E09183808364C0FE01AC
:10399000E150FE4F608171818281938120E03FEF91
:1039A0004FE757E40E94BD0318160CF043C0FE0118
:1039B000ED5FFD4F608171818281938120E030E075
:1039C00040E251E40E941702DC01CB018E0103505A
:1039D0001E4FBC01CD010E944100DC01CB01F8016A
:1039E000918380831FC0FE01E550FE4F88EC90E07C
:1039F00091838083FE01E550FE4F80819181019784
:103A0000F1F7FE01E550FE4F91838083DE01A35064
:103A1000BE4FFE01E350FE4F8081918101971196C8
:103A20009C938E93FE01E350FE4F8081918100971D
:103A3000D1F627C08E0103501E4FFE01E150FE4F0C
:103A400060817181828193810E944100DC01CB0100
:103A5000F80191838083DE01A750BE4FFE01E35041
:103A6000FE4F808191818D939C93FE01E750FE4F24
:103A7000808191810197F1F7FE01E750FE4F91831C
:103A80008083FE01EC56FD4F2081CE018F5E9C4F5E
:103A900061E041E00E94B20BFE01EB50FE4F80E07E
:103AA00090E0A8E4B3E480839183A283B3838E0182
:103AB0000F501E4FFE01EB50FE4F608171818281DD
:103AC000938120E030E04AEF54E40E941702DC01C9
:103AD000CB01F80180839183A283B383FE01EF5071
:103AE000FE4F608171818281938120E030E040E867
:103AF0005FE30E941D04882344F4FE01E151FE4F60
:103B000081E090E09183808364C0FE01EF50FE4F1E
:103B1000608171818281938120E03FEF4FE757E41C
:103B20000E94BD0318160CF043C0FE01EB50FE4F7F
:103B3000608171818281938120E030E040E251E434
:103B40000E941702DC01CB018E0101511E4FBC0106
:103B5000CD010E944100DC01CB01F80191838083FB
:103B60001FC0FE01E351FE4F88EC90E091838083FB
:103B7000FE01E351FE4F808191810197F1F7FE0133
:103B8000E351FE4F91838083DE01A151BE4FFE01C0
:103B9000E151FE4F80819181019711969C938E9304
:103BA000FE01E151FE4F808191810097D1F627C03F
:103BB0008E0101511E4FFE01EF50FE4F6081718159
:103BC000828193810E944100DC01CB01F801918345
:103BD0008083DE01A551BE4FFE01E151FE4F808181
:103BE00091818D939C93FE01E551FE4F80819181DF
:103BF0000197F1F7FE01E551FE4F9183808381E04B
:103C00000E947508DE01AC56BD4FFE01EC56FD4F1B
:103C1000808181508C93FE01EC56FD4F808188237A
:103C20000CF0EACC86E890E00E946B0BFE01E951B3
:103C3000FE4F80E090E0AAE7B4E480839183A28302
:103C4000B3838E010D511E4FFE01E951FE4F60817D
:103C500071818281938120E030E04AEF54E40E9438
:103C60001702DC01CB01F80180839183A283B38327
:103C7000FE01ED51FE4F608171818281938120E0D0
:103C800030E040E85FE30E941D04882344F4FE0115
:103C9000EF51FE4F81E090E09183808364C0FE018C
:103CA000ED51FE4F608171818281938120E03FEF71
:103CB0004FE757E40E94BD0318160CF043C0FE0105
:103CC000E951FE4F608171818281938120E030E073
:103CD00040E251E40E941702DC01CB018E010F513A
:103CE0001E4FBC01CD010E944100DC01CB01F80157
:103CF000918380831FC0FE01E152FE4F88EC90E06B
:103D000091838083FE01E152FE4F80819181019772
:103D1000F1F7FE01E152FE4F91838083DE01AF5146
:103D2000BE4FFE01EF51FE4F8081918101971196A8
:103D30009C938E93FE01EF51FE4F808191810097FD
:103D4000D1F627C08E010F511E4FFE01ED51FE4FDF
:103D500060817181828193810E944100DC01CB01ED
:103D6000F80191838083DE01A352BE4FFE01EF5123
:103D7000FE4F808191818D939C93FE01E352FE4F13
:103D8000808191810197F1F7FE01E352FE4F91830B
:103D9000808381E00E947508CE0187529D4F60E0CC
:103DA00040E027E00E94B20BCE018F519D4F61E0B1
:103DB00041E027E00E94B20BFE01E752FE4F80E097
:103DC00090E0AAEFB3E480839183A283B3838E0152
:103DD0000B521E4FFE01E752FE4F608171818281BE
:103DE000938120E030E04AEF54E40E941702DC01A6
:103DF000CB01F80180839183A283B383FE01EB5250
:103E0000FE4F608171818281938120E030E040E843
:103E10005FE30E941D04882344F4FE01ED52FE4F2F
:103E200081E090E09183808364C0FE01EB52FE4FFD
:103E3000608171818281938120E03FEF4FE757E4F9
:103E40000E94BD0318160CF043C0FE01E752FE4F5E
:103E5000608171818281938120E030E040E251E411
:103E60000E941702DC01CB018E010D521E4FBC01D6
:103E7000CD010E944100DC01CB01F80191838083D8
:103E80001FC0FE01EF52FE4F88EC90E091838083CB
:103E9000FE01EF52FE4F808191810197F1F7FE0103
:103EA000EF52FE4F91838083DE01AD52BE4FFE0183
:103EB000ED52FE4F80819181019711969C938E93D4
:103EC000FE01ED52FE4F808191810097D1F627C00F
:103ED0008E010D521E4FFE01EB52FE4F608171812B
:103EE000828193810E944100DC01CB01F801918322
:103EF0008083DE01A153BE4FFE01ED52FE4F808153
:103F000091818D939C93FE01E153FE4F80819181BD
:103F10000197F1F7FE01E153FE4F9183808381E029
:103F20000E947508CE0187519D4F60E040E027E078
:103F30000E94B20BCE018F5D9C4F61E041E027E013
:103F40000E94B20BFE01E553FE4F80E090E0AAE72D
:103F5000B3E480839183A283B3838E0109531E4F00
:103F6000FE01E553FE4F608171818281938120E0E3
:103F700030E04AEF54E40E941702DC01CB01F80163
:103F800080839183A283B383FE01E953FE4F608156
:103F900071818281938120E030E040E85FE30E94FC
:103FA0001D04882344F4FE01EB53FE4F81E090E0B2
:103FB0009183808364C0FE01E953FE4F608171816B
:103FC0008281938120E03FEF4FE757E40E94BD03D9
:103FD00018160CF043C0FE01E553FE4F608171815D
:103FE0008281938120E030E040E251E40E94170298
:103FF000DC01CB018E010B531E4FBC01CD010E9491
:104000004100DC01CB01F801918380831FC0FE01D8
:10401000ED53FE4F88EC90E091838083FE01ED53D9
:10402000FE4F808191810197F1F7FE01ED53FE4F24
:1040300091838083DE01AB53BE4FFE01EB53FE4FF5
:1040400080819181019711969C938E93FE01EB5391
:10405000FE4F808191810097D1F627C08E010B53CE
:104060001E4FFE01E953FE4F608171818281938171
:104070000E944100DC01CB01F80191838083DE01C5
:10408000AF53BE4FFE01EB53FE4F808191818D9364
:104090009C93FE01EF53FE4F808191810197F1F7D0
:1040A000FE01EF53FE4F91838083CE018F509D4FD1
:1040B00060E040E027E00E94B20BCE01875E9C4F9B
:1040C00061E041E027E00E94B20BFE01E354FE4FA5
:1040D00080E090E0AAE7B3E480839183A283B38376
:1040E0008E0107541E4FFE01E354FE4F6081718123
:1040F0008281938120E030E04AEF54E40E9417026D
:10410000DC01CB01F80180839183A283B383FE019C
:10411000E754FE4F608171818281938120E030E01D
:1041200040E85FE30E941D04882344F4FE01E95443
:10413000FE4F81E090E09183808364C0FE01E754EC
:10414000FE4F608171818281938120E03FEF4FE7D4
:1041500057E40E94BD0318160CF043C0FE01E3545F
:10416000FE4F608171818281938120E030E040E2E6
:1041700051E40E941702DC01CB018E0109541E4F4D
:10418000BC01CD010E944100DC01CB01F80191830B
:1041900080831FC0FE01EB54FE4F88EC90E09183BA
:1041A0008083FE01EB54FE4F808191810197F1F7EE
:1041B000FE01EB54FE4F91838083DE01A954BE4F74
:1041C000FE01E954FE4F80819181019711969C93E5
:1041D0008E93FE01E954FE4F808191810097D1F6C4
:1041E00027C08E0109541E4FFE01E754FE4F608127
:1041F0007181828193810E944100DC01CB01F80131
:1042000091838083DE01AD54BE4FFE01E954FE4F21
:10421000808191818D939C93FE01ED54FE4F8081AE
:1042200091810197F1F7FE01ED54FE4F9183808358
:10423000CE018F5F9C4F60E040E027E00E94B20B10
:10424000CE018F5E9C4F61E041E027E00E94B20BFF
:10425000FE01E155FE4F80E090E0AAE7B3E48083E1
:104260009183A283B3838E0105551E4FFE01E15554
:10427000FE4F608171818281938120E030E04AEFBE
:1042800054E40E941702DC01CB01F8018083918382
:10429000A283B383FE01E555FE4F60817181828167
:1042A000938120E030E040E85FE30E941D04882312
:1042B00044F4FE01E755FE4F81E090E09183808356
:1042C00064C0FE01E555FE4F60817181828193815A
:1042D00020E03FEF4FE757E40E94BD0318160CF0B3
:1042E00043C0FE01E155FE4F60817181828193815F
:1042F00020E030E040E251E40E941702DC01CB01F3
:104300008E0107551E4FBC01CD010E944100DC010A
:10431000CB01F801918380831FC0FE01E955FE4F58
:1043200088EC90E091838083FE01E955FE4F808107
:1043300091810197F1F7FE01E955FE4F918380834A
:10434000DE01A755BE4FFE01E755FE4F80819181EA
:10435000019711969C938E93FE01E755FE4F808145
:1043600091810097D1F627C08E0107551E4FFE019F
:10437000E555FE4F60817181828193810E944100E9
:10438000DC01CB01F80191838083DE01AB55BE4F88
:10439000FE01E755FE4F808191818D939C93FE0134
:1043A000EB55FE4F808191810197F1F7FE01EB55AE
:1043B000FE4F91838083CE0187509D4F60E040E0A7
:1043C00027E00E94B20BCE018F5E9C4F61E041E07E
:1043D00027E00E94B20BFE01EF55FE4F80E090E017
:1043E000AAE7B3E480839183A283B3838E0103564B
:1043F0001E4FFE01EF55FE4F6081718182819381D6
:1044000020E030E04AEF54E40E941702DC01CB01C7
:10441000F80180839183A283B383FE01E356FE4FAC
:10442000608171818281938120E030E040E85FE328
:104430000E941D04882344F4FE01E556FE4F81E0EE
:1044400090E09183808364C0FE01E356FE4F60815B
:1044500071818281938120E03FEF4FE757E40E9412
:10446000BD0318160CF043C0FE01EF55FE4F6081EE
:1044700071818281938120E030E040E251E40E942A
:104480001702DC01CB018E0105561E4FBC01CD0188
:104490000E944100DC01CB01F801918380831FC0A1
:1044A000FE01E756FE4F88EC90E091838083FE0189
:1044B000E756FE4F808191810197F1F7FE01E756A3
:1044C000FE4F91838083DE01A556BE4FFE01E55667
:1044D000FE4F80819181019711969C938E93FE01EE
:1044E000E556FE4F808191810097D1F627C08E015D
:1044F00005561E4FFE01E356FE4F60817181828199
:1045000093810E944100DC01CB01F80191838083FB
:10451000DE01A956BE4FFE01E556FE4F8081918116
:104520008D939C93FE01E956FE4F80819181019706
:10453000F1F7FE01E956FE4F91838083CE01875249
:104540009D4F60E040E027E00E94B20BCE018F510A
:104550009D4F61E041E027E00E94B20BFE01ED5665
:10456000FE4F80E090E0AAE7B3E480839183A283CA
:10457000B3838E0101571E4FFE01ED56FE4F608141
:1045800071818281938120E030E04AEF54E40E94FF
:104590001702DC01CB01F80180839183A283B383EE
:1045A000FE01E157FE4F608171818281938120E09D
:1045B00030E040E85FE30E941D04882344F4FE01DC
:1045C000E357FE4F81E090E09183808364C0FE0159
:1045D000E157FE4F608171818281938120E03FEF3E
:1045E0004FE757E40E94BD0318160CF043C0FE01CC
:1045F000ED56FE4F608171818281938120E030E031
:1046000040E251E40E941702DC01CB018E01035706
:104610001E4FBC01CD010E944100DC01CB01F8011D
:10462000918380831FC0FE01E557FE4F88EC90E028
:1046300091838083FE01E557FE4F80819181019730
:10464000F1F7FE01E557FE4F91838083DE01A3570A
:10465000BE4FFE01E357FE4F808191810197119675
:104660009C938E93FE01E357FE4F808191810097CA
:10467000D1F627C08E0103571E4FFE01E157FE4FB2
:1046800060817181828193810E944100DC01CB01B4
:10469000F80191838083DE01A757BE4FFE01E357E7
:1046A000FE4F808191818D939C93FE01E757FE4FD1
:1046B000808191810197F1F7FE01E757FE4F9183C9
:1046C0008083CE018F5F9C4F60E040E027E00E9436
:1046D000B20BCE018F5E9C4F61E041E027E00E946B
:1046E000B20BFE01EB57FE4F80E090E0AAE7B3E487
:1046F00080839183A283B3838E010F571E4FFE01E7
:10470000EB57FE4F608171818281938120E030E020
:104710004AEF54E40E941702DC01CB01F8018083C8
:104720009183A283B383FE01EF57FE4F60817181B5
:104730008281938120E030E040E85FE30E941D0425
:10474000882344F4FE01E158FE4F81E090E091831C
:10475000808364C0FE01EF57FE4F608171818281CA
:10476000938120E03FEF4FE757E40E94BD03181606
:104770000CF043C0FE01EB57FE4F608171818281D6
:10478000938120E030E040E251E40E941702DC0116
:10479000CB018E0101581E4FBC01CD010E9441008A
:1047A000DC01CB01F801918380831FC0FE01E35837
:1047B000FE4F88EC90E091838083FE01E358FE4F2A
:1047C000808191810197F1F7FE01E358FE4F9183BB
:1047D0008083DE01A158BE4FFE01E158FE4F80816B
:1047E0009181019711969C938E93FE01E158FE4FA3
:1047F000808191810097D1F627C08E0101581E4F0C
:10480000FE01EF57FE4F60817181828193810E948A
:104810004100DC01CB01F80191838083DE01A558C2
:10482000BE4FFE01E158FE4F808191818D939C9394
:10483000FE01E558FE4F808191810197F1F7FE015D
:10484000E558FE4F91838083CE01875F9C4F60E0E7
:1048500040E027E00E94B20BCE018F5C9C4F61E0EC
:1048600041E027E00E94B20BFE01E958FE4F80E0D4
:1048700090E0AAE7B3E480839183A283B3838E019F
:104880000D581E4FFE01E958FE4F608171818281F3
:10489000938120E030E04AEF54E40E941702DC01EB
:1048A000CB01F80180839183A283B383FE01ED588D
:1048B000FE4F608171818281938120E030E040E889
:1048C0005FE30E941D04882344F4FE01EF58FE4F6D
:1048D00081E090E09183808364C0FE01ED58FE4F3B
:1048E000608171818281938120E03FEF4FE757E43F
:1048F0000E94BD0318160CF043C0FE01E958FE4F9C
:10490000608171818281938120E030E040E251E456
:104910000E941702DC01CB018E010F581E4FBC0113
:10492000CD010E944100DC01CB01F801918380831D
:104930001FC0FE01E159FE4F88EC90E09183808317
:10494000FE01E159FE4F808191810197F1F7FE014F
:10495000E159FE4F91838083DE01AF58BE4FFE01C7
:10496000EF58FE4F80819181019711969C938E9311
:10497000FE01EF58FE4F808191810097D1F627C04C
:104980008E010F581E4FFE01ED58FE4F6081718160
:10499000828193810E944100DC01CB01F801918367
:1049A0008083DE01A359BE4FFE01EF58FE4F808188
:1049B00091818D939C93FE01E359FE4F80819181FB
:1049C0000197F1F7FE01E359FE4F91838083CE01F9
:1049D0008F5F9C4F60E040E027E00E94B20BCE0169
:1049E000875E9C4F61E041E027E00E94B20BFE0130
:1049F000E759FE4F80E090E0AAE7B3E4808391831B
:104A0000A283B3838E010B591E4FFE01E759FE4F5F
:104A1000608171818281938120E030E04AEF54E42B
:104A20000E941702DC01CB01F80180839183A283ED
:104A3000B383FE01EB59FE4F6081718182819381C6
:104A400020E030E040E85FE30E941D04882344F446
:104A5000FE01ED59FE4F81E090E09183808364C0B8
:104A6000FE01EB59FE4F608171818281938120E0CC
:104A70003FEF4FE757E40E94BD0318160CF043C008
:104A8000FE01E759FE4F608171818281938120E0B0
:104A900030E040E251E40E941702DC01CB018E01BC
:104AA0000D591E4FBC01CD010E944100DC01CB011C
:104AB000F801918380831FC0FE01EF59FE4F88ECFF
:104AC00090E091838083FE01EF59FE4F80819181B8
:104AD0000197F1F7FE01EF59FE4F91838083DE01CC
:104AE000AD59BE4FFE01ED59FE4F80819181019776
:104AF00011969C938E93FE01ED59FE4F808191811A
:104B00000097D1F627C08E010D591E4FFE01EB59BB
:104B1000FE4F60817181828193810E944100DC019E
:104B2000CB01F80191838083DE01A15ABE4FFE01C3
:104B3000ED59FE4F808191818D939C93FE01E15A46
:104B4000FE4F808191810197F1F7FE01E15AFE4FFE
:104B500091838083CE018F5F9C4F60E040E027E02F
:104B60000E94B20BCE018F5E9C4F61E041E027E0D6
:104B70000E94B20BFE01E55AFE4F80E090E0AAE7EA
:104B8000B3E480839183A283B3838E01095A1E4FBD
:104B9000FE01E55AFE4F608171818281938120E0A0
:104BA00030E04AEF54E40E941702DC01CB01F80127
:104BB00080839183A283B383FE01E95AFE4F608113
:104BC00071818281938120E030E040E85FE30E94C0
:104BD0001D04882344F4FE01EB5AFE4F81E090E06F
:104BE0009183808364C0FE01E95AFE4F6081718128
:104BF0008281938120E03FEF4FE757E40E94BD039D
:104C000018160CF043C0FE01E55AFE4F6081718119
:104C10008281938120E030E040E251E40E9417025B
:104C2000DC01CB018E010B5A1E4FBC01CD010E944D
:104C30004100DC01CB01F801918380831FC0FE019C
:104C4000ED5AFE4F88EC90E091838083FE01ED5A8F
:104C5000FE4F808191810197F1F7FE01ED5AFE4FE1
:104C600091838083DE01AB5ABE4FFE01EB5AFE4FAB
:104C700080819181019711969C938E93FE01EB5A4E
:104C8000FE4F808191810097D1F627C08E010B5A8B
:104C90001E4FFE01E95AFE4F60817181828193812E
:104CA0000E944100DC01CB01F80191838083DE0189
:104CB000AF5ABE4FFE01EB5AFE4F808191818D931A
:104CC0009C93FE01EF5AFE4F808191810197F1F78D
:104CD000FE01EF5AFE4F9183808381E00E947508A8
:104CE000CE018F5F9C4F60E040E026E00E94B20B57
:104CF000CE018F5D9C4F61E041E026E00E94B20B47
:104D0000FE01E35BFE4F80E090E0AAE7B3E480831E
:104D10009183A283B3838E01075B1E4FFE01E35B89
:104D2000FE4F608171818281938120E030E04AEF03
:104D300054E40E941702DC01CB01F80180839183C7
:104D4000A283B383FE01E75BFE4F608171818281A4
:104D5000938120E030E040E85FE30E941D04882357
:104D600044F4FE01E95BFE4F81E090E09183808393
:104D700064C0FE01E75BFE4F608171818281938197
:104D800020E03FEF4FE757E40E94BD0318160CF0F8
:104D900043C0FE01E35BFE4F60817181828193819C
:104DA00020E030E040E251E40E941702DC01CB0138
:104DB0008E01095B1E4FBC01CD010E944100DC0148
:104DC000CB01F801918380831FC0FE01EB5BFE4F96
:104DD00088EC90E091838083FE01EB5BFE4F808145
:104DE00091810197F1F7FE01EB5BFE4F9183808388
:104DF000DE01A95BBE4FFE01E95BFE4F8081918120
:104E0000019711969C938E93FE01E95BFE4F808182
:104E100091810097D1F627C08E01095B1E4FFE01DC
:104E2000E75BFE4F60817181828193810E94410026
:104E3000DC01CB01F80191838083DE01AD5BBE4FC5
:104E4000FE01E95BFE4F808191818D939C93FE0171
:104E5000ED5BFE4F808191810197F1F7FE01ED5BE3
:104E6000FE4F91838083CE018F5F9C4F60E040E0D6
:104E700026E00E94B20BCE018F5E9C4F61E041E0C4
:104E800026E00E94B20BFE01E15CFE4F80E090E064
:104E9000AAE7B3E480839183A283B3838E01055C88
:104EA0001E4FFE01E15CFE4F608171818281938122
:104EB00020E030E04AEF54E40E941702DC01CB010D
:104EC000F80180839183A283B383FE01E55CFE4FEA
:104ED000608171818281938120E030E040E85FE36E
:104EE0000E941D04882344F4FE01E75CFE4F81E02C
:104EF00090E09183808364C0FE01E55CFE4F608199
:104F000071818281938120E03FEF4FE757E40E9457
:104F1000BD0318160CF043C0FE01E15CFE4F60813A
:104F200071818281938120E030E040E251E40E946F
:104F30001702DC01CB018E01075C1E4FBC01CD01C5
:104F40000E944100DC01CB01F801918380831FC0E6
:104F5000FE01E95CFE4F88EC90E091838083FE01C6
:104F6000E95CFE4F808191810197F1F7FE01E95CD8
:104F7000FE4F91838083DE01A75CBE4FFE01E75C9C
:104F8000FE4F80819181019711969C938E93FE0133
:104F9000E75CFE4F808191810097D1F627C08E019A
:104FA000075C1E4FFE01E55CFE4F608171818281CE
:104FB00093810E944100DC01CB01F8019183808341
:104FC000DE01AB5CBE4FFE01E75CFE4F808191814C
:104FD0008D939C93FE01EB5CFE4F80819181019744
:104FE000F1F7FE01EB5CFE4F91838083CE01875089
:104FF0009D4F60E040E026E00E94B20BCE018F5E44
:105000009C4F61E041E026E00E94B20BFE01EF5CA4
:10501000FE4F80E090E0AAE7B3E480839183A2830F
:10502000B3838E01035D1E4FFE01EF5CFE4F608176
:1050300071818281938120E030E04AEF54E40E9444
:105040001702DC01CB01F80180839183A283B38333
:10505000FE01E35DFE4F608171818281938120E0DA
:1050600030E040E85FE30E941D04882344F4FE0121
:10507000E55DFE4F81E090E09183808364C0FE0196
:10508000E35DFE4F608171818281938120E03FEF7B
:105090004FE757E40E94BD0318160CF043C0FE0111
:1050A000EF5CFE4F608171818281938120E030E06E
:1050B00040E251E40E941702DC01CB018E01055D44
:1050C0001E4FBC01CD010E944100DC01CB01F80163
:1050D000918380831FC0FE01E75DFE4F88EC90E066
:1050E00091838083FE01E75DFE4F8081918101976E
:1050F000F1F7FE01E75DFE4F91838083DE01A55D40
:10510000BE4FFE01E55DFE4F8081918101971196B2
:105110009C938E93FE01E55DFE4F80819181009707
:10512000D1F627C08E01055D1E4FFE01E35DFE4FE7
:1051300060817181828193810E944100DC01CB01F9
:10514000F80191838083DE01A95DBE4FFE01E55D1C
:10515000FE4F808191818D939C93FE01E95DFE4F0E
:10516000808191810197F1F7FE01E95DFE4F918306
:105170008083CE01875F9C4F60E040E026E00E9484
:10518000B20BCE018F5D9C4F61E041E026E00E94B2
:10519000B20BFE01ED5DFE4F80E090E0AAE7B3E4C4
:1051A00080839183A283B3838E01015E1E4FFE0133
:1051B000ED5DFE4F608171818281938120E030E05E
:1051C0004AEF54E40E941702DC01CB01F80180830E
:1051D0009183A283B383FE01E15EFE4F6081718102
:1051E0008281938120E030E040E85FE30E941D046B
:1051F000882344F4FE01E35EFE4F81E090E091835A
:10520000808364C0FE01E15EFE4F60817181828116
:10521000938120E03FEF4FE757E40E94BD0318164B
:105220000CF043C0FE01ED5DFE4F60817181828113
:10523000938120E030E040E251E40E941702DC015B
:10524000CB018E01035E1E4FBC01CD010E944100C7
:10525000DC01CB01F801918380831FC0FE01E55E74
:10526000FE4F88EC90E091838083FE01E55EFE4F67
:10527000808191810197F1F7FE01E55EFE4F9183F8
:105280008083DE01A35EBE4FFE01E35EFE4F8081A0
:105290009181019711969C938E93FE01E35EFE4FE0
:1052A000808191810097D1F627C08E01035E1E4F49
:1052B000FE01E15EFE4F60817181828193810E94D7
:1052C0004100DC01CB01F80191838083DE01A75E00
:1052D000BE4FFE01E35EFE4F808191818D939C93D2
:1052E000FE01E75EFE4F808191810197F1F7FE019B
:1052F000E75EFE4F91838083CE018F509D4F60E02B
:1053000040E026E00E94B20BCE018F5E9C4F61E030
:1053100041E026E00E94B20BFE01EB5EFE4F80E012
:1053200090E0AAE7B3E480839183A283B3838E01E4
:105330000F5E1E4FFE01EB5EFE4F60817181828128
:10534000938120E030E04AEF54E40E941702DC0130
:10535000CB01F80180839183A283B383FE01EF5ECA
:10536000FE4F608171818281938120E030E040E8CE
:105370005FE30E941D04882344F4FE01E15FFE4FB9
:1053800081E090E09183808364C0FE01EF5EFE4F78
:10539000608171818281938120E03FEF4FE757E484
:1053A0000E94BD0318160CF043C0FE01EB5EFE4FD9
:1053B000608171818281938120E030E040E251E49C
:1053C0000E941702DC01CB018E01015F1E4FBC0160
:1053D000CD010E944100DC01CB01F8019183808363
:1053E0001FC0FE01E35FFE4F88EC90E09183808355
:1053F000FE01E35FFE4F808191810197F1F7FE018D
:10540000E35FFE4F91838083DE01A15FBE4FFE010B
:10541000E15FFE4F80819181019711969C938E935D
:10542000FE01E15FFE4F808191810097D1F627C098
:105430008E01015F1E4FFE01EF5EFE4F60817181A4
:10544000828193810E944100DC01CB01F8019183AC
:105450008083DE01A55FBE4FFE01E15FFE4F8081CC
:1054600091818D939C93FE01E55FFE4F8081918138
:105470000197F1F7FE01E55FFE4F91838083CE0136
:105480008F5F9C4F60E040E026E00E94B20BCE01AF
:10549000875D9C4F61E041E026E00E94B20BFE0177
:1054A000E95FFE4F80E090E0AAE7B3E48083918358
:1054B000A283B3838E010D5F1E4FFE01E95FFE4F95
:1054C000608171818281938120E030E04AEF54E471
:1054D0000E941702DC01CB01F80180839183A28333
:1054E000B383FE01ED5FFE4F608171818281938104
:1054F00020E030E040E85FE30E941D04882344F48C
:10550000FE01EF5FFE4F81E090E09183808364C0F5
:10551000FE01ED5FFE4F608171818281938120E009
:105520003FEF4FE757E40E94BD0318160CF043C04D
:10553000FE01E95FFE4F608171818281938120E0ED
:1055400030E040E251E40E941702DC01CB018E0101
:105550000F5F1E4FBC01CD010E944100DC01CB0159
:10556000F801918380831FC0FE01E150FF4F88EC5A
:1055700090E091838083FE01E150FF4F8081918113
:105580000197F1F7FE01E150FF4F91838083DE0127
:10559000AF5FBE4FFE01EF5FFE4F808191810197AB
:1055A00011969C938E93FE01EF5FFE4F8081918157
:1055B0000097D1F627C08E010F5F1E4FFE01ED5FF1
:1055C000FE4F60817181828193810E944100DC01E4
:1055D000CB01F80191838083DE01A350BF4FFE0110
:1055E000EF5FFE4F808191818D939C93FE01E3508C
:1055F000FF4F808191810197F1F7FE01E350FF4F4A
:1056000091838083CE0187529D4F60E040E026E089
:105610000E94B20BCE018F519D4F61E041E026E028
:105620000E94B20BFE01E750FF4F80E090E0AAE736
:10563000B3E480839183A283B3838E010B501F4F09
:10564000FE01E750FF4F608171818281938120E0EC
:1056500030E04AEF54E40E941702DC01CB01F8016C
:1056600080839183A283B383FE01EB50FF4F60815F
:1056700071818281938120E030E040E85FE30E9405
:105680001D04882344F4FE01ED50FF4F81E090E0BB
:105690009183808364C0FE01EB50FF4F6081718174
:1056A0008281938120E03FEF4FE757E40E94BD03E2
:1056B00018160CF043C0FE01E750FF4F6081718166
:1056C0008281938120E030E040E251E40E941702A1
:1056D000DC01CB018E010D501F4FBC01CD010E949A
:1056E0004100DC01CB01F801918380831FC0FE01E2
:1056F000EF50FF4F88EC90E091838083FE01EF50E4
:10570000FF4F808191810197F1F7FE01EF50FF4F2C
:1057100091838083DE01AD50BF4FFE01ED50FF4FFE
:1057200080819181019711969C938E93FE01ED509B
:10573000FF4F808191810097D1F627C08E010D50D7
:105740001F4FFE01EB50FF4F608171818281938179
:105750000E944100DC01CB01F80191838083DE01CE
:10576000A151BF4FFE01ED50FF4F808191818D937C
:105770009C93FE01E151FF4F808191810197F1F7E8
:10578000FE01E151FF4F91838083CE0187519D4FF0
:1057900060E040E026E00E94B20BCE018F5E9C4F9D
:1057A00061E041E026E00E94B20BFE01E551FF4FAF
:1057B00080E090E0AAE7B3E480839183A283B3837F
:1057C0008E0109511F4FFE01E551FF4F608171812C
:1057D0008281938120E030E04AEF54E40E94170276
:1057E000DC01CB01F80180839183A283B383FE01A6
:1057F000E951FF4F608171818281938120E030E027
:1058000040E85FE30E941D04882344F4FE01EB514D
:10581000FF4F81E090E09183808364C0FE01E951F5
:10582000FF4F608171818281938120E03FEF4FE7DC
:1058300057E40E94BD0318160CF043C0FE01E55169
:10584000FF4F608171818281938120E030E040E2EE
:1058500051E40E941702DC01CB018E010B511F4F56
:10586000BC01CD010E944100DC01CB01F801918314
:1058700080831FC0FE01ED51FF4F88EC90E09183C3
:105880008083FE01ED51FF4F808191810197F1F7F7
:10589000FE01ED51FF4F91838083DE01AB51BF4F7D
:1058A000FE01EB51FF4F80819181019711969C93EE
:1058B0008E93FE01EB51FF4F808191810097D1F6CD
:1058C00027C08E010B511F4FFE01E951FF4F608130
:1058D0007181828193810E944100DC01CB01F8013A
:1058E00091838083DE01AF51BF4FFE01EB51FF4F2B
:1058F000808191818D939C93FE01EF51FF4F8081B8
:1059000091810197F1F7FE01EF51FF4F9183808361
:10591000CE018F509D4F60E040E026E00E94B20B28
:10592000CE01875D9C4F61E041E026E00E94B20B12
:10593000FE01E352FF4F80E090E0AAE7B3E48083EA
:105940009183A283B3838E0107521F4FFE01E3525E
:10595000FF4F608171818281938120E030E04AEFC6
:1059600054E40E941702DC01CB01F801808391838B
:10597000A283B383FE01E752FF4F60817181828170
:10598000938120E030E040E85FE30E941D0488231B
:1059900044F4FE01E952FF4F81E090E0918380835F
:1059A00064C0FE01E752FF4F608171818281938163
:1059B00020E03FEF4FE757E40E94BD0318160CF0BC
:1059C00043C0FE01E352FF4F608171818281938168
:1059D00020E030E040E251E40E941702DC01CB01FC
:1059E0008E0109521F4FBC01CD010E944100DC0114
:1059F000CB01F801918380831FC0FE01EB52FF4F62
:105A000088EC90E091838083FE01EB52FF4F808110
:105A100091810197F1F7FE01EB52FF4F9183808353
:105A2000DE01A952BF4FFE01E952FF4F80819181F3
:105A3000019711969C938E93FE01E952FF4F80814E
:105A400091810097D1F627C08E0109521F4FFE01A8
:105A5000E752FF4F60817181828193810E944100F2
:105A6000DC01CB01F80191838083DE01AD52BF4F91
:105A7000FE01E952FF4F808191818D939C93FE013D
:105A8000ED52FF4F808191810197F1F7FE01ED52B8
:105A9000FF4F91838083CE0187509D4F60E040E0AF
:105AA00026E00E94B20BCE018F5D9C4F61E041E089
:105AB00026E00E94B20BFE01E153FF4F80E090E030
:105AC000AAE7B3E480839183A283B3838E01055355
:105AD0001F4FFE01E153FF4F6081718182819381ED
