:100000000C942A000C943F000C943F000C943F0089
:100010000C943F000C943F000C943F000C943F0064
:100020000C943F000C943F000C943F000C943F0054
:100030000C943F000C943F000C943F000C943F0044
:100040000C943F000C943F000C943F000C943F0034
:100050000C943F0011241FBECFE5D8E0DEBFCDBF1A
:1000600011E0A0E6B0E0E8EFFEE002C005900D92DE
:10007000A036B107D9F70E9460020C947A070C945D
:100080000000843010F081E00895813049F0813023
:1000900028F0823039F0833031F407C06BBB03C0E5
:1000A00068BB01C065BB80E0089562BB80E0089535
:1000B000FB01843010F081E00895813049F08130F7
:1000C00028F0823039F0833039F408C089B303C096
:1000D00086B301C083B3808380E0089580B38083BA
:1000E00080E008954130B1F5813099F0813030F0F1
:1000F0008230D1F0833009F06BC021C02BB381E096
:1001000090E002C0880F991F6A95E2F7282B2BBB5D
:100110005DC028B381E090E002C0880F991F6A9506
:10012000E2F7282B28BB52C025B381E090E002C043
:10013000880F991F6A95E2F7282B25BB47C022B389
:1001400081E090E002C0880F991F6A95E2F7282BA2
:1001500022BB3CC0442311F081E00895813099F026
:10016000813028F08230D9F0833091F524C02BB350
:1001700081E090E002C0880F991F6A95E2F78095B0
:1001800082238BBB23C028B381E090E002C0880F9C
:10019000991F6A95E2F78095822388BB17C025B323
:1001A00081E090E002C0880F991F6A95E2F7809580
:1001B000822385BB0BC022B381E090E002C0880F90
:1001C000991F6A95E2F78095822382BB80E00895AB
:1001D00080E00895FA01813049F0813028F08230C2
:1001E00039F0833081F406C089B305C086B303C0FB
:1001F00083B301C080B390E002C0959587956A955E
:10020000E2F78170808380E008951F93182F83E0C8
:1002100067E041E00E94720083E066E040E00E94F7
:10022000720082E0612F0E94410083E065E041E0BE
:100230000E94720080EA9FE00197F1F783E065E099
:1002400040E00E9472001F9108951F93CF93DF93A7
:10025000EC0110E003C00E9405011F5FFE01E10FE9
:10026000F11D80818823B9F7DF91CF911F91089507
:100270000F931F93DF93CF93CDB7DEB760970FB681
:10028000F894DEBF0FBECDBFFC019C0140E007C06B
:100290004F5FC9016AE070E00E9466079B0121156B
:1002A0003105B1F78E010F5F1F4F3E2F2F2FF80141
:1002B00010C0832F922F6AE070E00E946607805D75
:1002C0008193832F922F6AE070E00E946607362F99
:1002D000272F8E2F801B841760F38E010F5F1F4F17
:1002E000040F111D04C0F80180810E940501015016
:1002F00010400C171D07B9F760960FB6F894DEBFD3
:100300000FBECDBFCF91DF911F910F9108951F9325
:10031000182F83E067E040E00E94720083E066E00F
:1003200040E00E94720082E0612F0E94410083E061
:1003300065E041E00E94720080EA9FE00197F1F7DA
:1003400083E065E040E00E9472001F91089588E01C
:100350000E94870108958CE00E94870108958FE034
:100360000E94870108958CE00E94870108958EE025
:100370000E948701089581E00E94870108958823E3
:1003800019F0813009F4605C862F80680E94870133
:1003900008950F931F93CF93DF93062F142FC82F29
:1003A000D0E0C40FD11D08C0802F612F0E94BF0173
:1003B00080E20E9405011F5F812F90E08C179D074E
:1003C0009CF3DF91CF911F910F910895CF92DF920F
:1003D000EF92FF920F931F93CF93DF93E62EF42EAD
:1003E000C0E0D0E0C42EDD24C7FCD094042F10E080
:1003F000081B110909C06F2D6C1B8E2D0E94BF01B7
:1004000080E20E9405012196C6018C1B9D0B0817F6
:1004100019078CF3DF91CF911F910F91FF90EF900F
:10042000DF90CF900895DF92EF92FF920F931F938A
:10043000CF93DF938C01F62EE42ED22E862F880FD9
:10044000880F880F80640E948701C0E0D0E0F80127
:10045000EC0FFD1F80810E9405012196C830D10557
:10046000B1F78E2D6D2D0E94BF018F2D0E940501C9
:10047000DF91CF911F910F91FF90EF90DF90089542
:1004800080E991E028EC30E0F9013197F1F701972C
:10049000D9F788E30E94870185E88A95F1F78CE017
:1004A0000E94870181E00E94870108958FEF8ABB37
:1004B00017BA84BB81BB1BBA18BA15BA12BA089511
:1004C0002F923F924F925F926F927F928F929F9264
:1004D000AF92BF92CF92DF92EF92FF921F93DF9382
:1004E000CF93CDB7DEB7C85CD0400FB6F894DEBF6F
:1004F0000FBECDBF0E9456020E94400280E20E94C1
:100500000501FE01319688E0DF011D928A95E9F729
:10051000DE011996E7E5F1E088E001900D92815047
:10052000E1F798E0FE017196DF01892F1D928A950F
:10053000E9F78EE1898BFE017996DF011D929A958C
:10054000E9F784E0898FDE019196EFE4F1E088E03D
:1005500001900D928150E1F7DE019996E7E4F1E018
:1005600088E001900D928150E1F7DE01D196EFE332
:10057000F1E088E001900D928150E1F7DE01D9961B
:10058000E7E3F1E088E001900D928150E1F7DE01B0
:10059000AF5BBF4FEFE2F1E088E001900D92815038
:1005A000E1F7DE01A75BBF4FE7E2F1E088E00190F1
:1005B0000D928150E1F7DE01AF5ABF4FEFE1F1E05C
:1005C00088E001900D928150E1F7DE01A75ABF4FFC
:1005D000E7E1F1E088E001900D928150E1F7DE0162
:1005E000AF59BF4FEFE0F1E088E001900D928150EC
:1005F000E1F7DE01A759BF4FE7E0F1E088E00190A5
:100600000D928150E1F7DE01AF58BF4FEFEFF0E000
:1006100088E001900D928150E1F7DE01A758BF4FAD
:10062000E7EFF0E088E001900D928150E1F7DE0104
:10063000AF57BF4FEFEEF0E088E001900D92815090
:10064000E1F7DE01A757BF4FE7EEF0E088E0019049
:100650000D928150E1F7DE01AF56BF4FEFEDF0E0B4
:1006600088E001900D928150E1F7DE01A756BF4F5F
:10067000E7EDF0E088E001900D928150E1F7DE01B6
:10068000AF55BF4FEFECF0E088E001900D92815044
:10069000E1F7DE01A755BF4FE7ECF0E088E00190FD
:1006A0000D928150E1F7DE01AF54BF4FEFEBF0E068
:1006B00088E001900D928150E1F7DE01A754BF4F11
:1006C000E7EBF0E088E001900D928150E1F7DE0168
:1006D000AF53BF4FEFEAF0E088E001900D928150F8
:1006E000E1F778ECE72EF12C61E6862E912C8C0E4A
:1006F0009D1E59E6652E712C6C0E7D1E41E7442E21
:10070000512C4C0E5D1E39E9232E312C2C0E3D1E32
:1007100080E690E00E94250180E197E2F7013197A1
:10072000F1F70197D9F781E00E9487018FE690E009
:100730000E94250180E197E2F7013197F1F70197D7
:10074000D9F781E00E948701CE01899660E040E000
:1007500020E00E941302CE01C19661E041E020E05A
:100760000E94130288E893E1F7013197F1F70197AE
:10077000D9F781E00E94870111E029E2C22ED12C35
:10078000CC0EDD1EC60160E040E0212F0E94130266
:10079000C40161E041E0212F0E94130288EE93E042
:1007A000F7013197F1F70197D9F7C30161E041E013
:1007B000212F0E9413028CED95E0F7013197F1F79C
:1007C0000197D9F7CE0187589F4F61E041E0212F73
:1007D0000E94130288EE93E0F7013197F1F7019739
:1007E000D9F7C20161E041E0212F0E94130280EDA0
:1007F00097E0F7013197F1F70197D9F781E00E946F
:1008000087011F5F1F3009F0BDCFCE01899660E0E0
:1008100040E02FE00E941302CE01C19661E041E06A
:100820002FE00E94130288E893E1F7013197F1F776
:100830000197D9F781E00E9487011EE099E2C92E55
:10084000D12CCC0EDD1EC60160E040E0212F0E94BD
:100850001302C20161E041E0212F0E94130288EEE1
:1008600093E0F7013197F1F70197D9F7C30161E000
:1008700041E0212F0E9413028CED95E0F7013197A2
:10088000F1F70197D9F7CE018F579F4F61E041E013
:10089000212F0E94130280ED97E0F7013197F1F7C5
:1008A0000197D9F7C40161E041E0212F0E941302B2
:1008B00080ED97E0F7013197F1F70197D9F781E0E3
:1008C0000E948701115008F0BECF89E790E00E9496
:1008D000250180E197E2F7013197F1F70197D9F708
:1008E00081E00E948701CE01899660E040E027E028
:1008F0000E941302CE01C19661E041E027E00E9410
:10090000130288E893E1F7013197F1F70197D9F7DE
:1009100081E00E948701CE01C99660E040E027E0B7
:100920000E941302C20161E041E027E00E9413022D
:1009300084EC99E0F7013197F1F70197D9F7CE01EF
:100940008F5B9F4F60E040E027E00E941302C301ED
:1009500061E041E027E00E94130284EC99E0F70196
:100960003197F1F70197D9F7CE018F5A9F4F60E089
:1009700040E027E00E941302C40161E041E027E06B
:100980000E94130284EC99E0F7013197F1F7019787
:10099000D9F7CE01875B9F4F60E040E027E00E94DF
:1009A0001302C40161E041E027E00E94130284ECDD
:1009B00099E0F7013197F1F70197D9F7CE018996C0
:1009C00060E040E027E00E941302CE01C19661E0A2
:1009D00041E027E00E94130284EC99E0F70131978F
:1009E000F1F70197D9F7CE018F5A9F4F60E040E0B1
:1009F00027E00E941302C40161E041E027E00E9469
:100A0000130284EC99E0F7013197F1F70197D9F7D8
:100A1000CE01875A9F4F60E040E027E00E9413021A
:100A2000CE018F579F4F61E041E027E00E94130203
:100A300084EC99E0F7013197F1F70197D9F7CE01EE
:100A40008F5A9F4F60E040E027E00E941302C301ED
:100A500061E041E027E00E94130284EC99E0F70195
:100A60003197F1F70197D9F7CE018F5A9F4F60E088
:100A700040E027E00E941302C40161E041E027E06A
:100A80000E94130284EC99E0F7013197F1F7019786
:100A9000D9F781E00E948701CE018F5A9F4F60E015
:100AA00040E026E00E941302C20161E041E026E03E
:100AB0000E94130284EC99E0F7013197F1F7019756
:100AC000D9F7CE018F5A9F4F60E040E026E00E94A8
:100AD0001302C40161E041E026E00E94130284ECAD
:100AE00099E0F7013197F1F70197D9F7CE01875BCC
:100AF0009F4F60E040E026E00E941302C40161E0E5
:100B000041E026E00E94130284EC99E0F70131975E
:100B1000F1F70197D9F7CE01875A9F4F60E040E087
:100B200026E00E941302C20161E041E026E00E943B
:100B3000130284EC99E0F7013197F1F70197D9F7A7
:100B4000CE018F5B9F4F60E040E026E00E941302E1
:100B5000C40161E041E026E00E94130284EC99E0C8
:100B6000F7013197F1F70197D9F7CE018F5A9F4FCF
:100B700060E040E026E00E941302CE0187589F4FBC
:100B800061E041E026E00E94130284EC99E0F70165
:100B90003197F1F70197D9F7CE01899660E040E0EF
:100BA00026E00E941302CE01C19661E041E026E0FA
:100BB0000E94130284EC99E0F7013197F1F7019755
:100BC000D9F7CE01C99660E040E026E00E9413020A
:100BD000C40161E041E026E00E94130284EC99E048
:100BE000F7013197F1F70197D9F7CE018F5B9F4F4E
:100BF00060E040E026E00E941302CE0187589F4F3C
:100C000061E041E026E00E94130284EC99E0F701E4
:100C10003197F1F70197D9F7CE01875B9F4F60E0DD
:100C200040E026E00E941302C20161E041E026E0BC
:100C30000E94130284EC99E0F7013197F1F70197D4
:100C4000D9F781E00E94870188E890E00E942501A1
:100C500080E197E2F7013197F1F70197D9F781E049
:100C60000E948701CE018F569F4F60E040E025E053
:100C70000E941302CE01C19661E041E025E00E948E
:100C8000130280E067E00E94BF0188E990E00E94C3
:100C9000250180E29EE4F7013197F1F70197D9F73A
:100CA00081E00E94870110E0C10160E040E025E0A2
:100CB0000E941302CE018F549F4F61E041E025E076
:100CC0000E94130280ED97E0F7013197F1F7019749
:100CD000D9F7C10160E040E025E00E941302CE0197
:100CE00087549F4F61E041E025E00E94130280EDB0
:100CF00097E0F7013197F1F70197D9F7C10160E06B
:100D000040E025E00E941302CE018F539F4F61E027
:100D100041E025E00E94130280ED97E0F701319752
:100D2000F1F70197D9F7CE018F559F4F60E040E072
:100D300025E00E941302C30161E041E025E00E942A
:100D4000130280ED97E0F7013197F1F70197D9F79A
:100D5000CE0187559F4F60E040E025E00E941302DE
:100D6000C30161E041E025E00E94130280ED97E0BD
:100D7000F7013197F1F70197D9F7CE018F559F4FC2
:100D800060E040E025E00E941302C30161E041E021
:100D900025E00E94130280ED97E0F7013197F1F70B
:100DA0000197D9F7C10160E040E025E00E941302FD
:100DB000CE018F539F4F61E041E025E00E94130276
:100DC00080ED97E0F7013197F1F70197D9F7C1016D
:100DD00060E040E025E00E941302CE0187549F4F5F
:100DE00061E041E025E00E94130280ED97E0F70109
:100DF0003197F1F70197D9F71F5F123009F054CFFF
:100E000081E00E94870181EA90E00E94250180E153
:100E100097E2F7013197F1F70197D9F781E00E9446
:100E20008701CE01099660E040E020E00E941302B5
:100E3000CE01419661E040E021E00E941302CE0124
:100E4000819662E040E02EE00E94130212E089E108
:100E5000A82EB12CAC0EBD1E6E010894C11CD11C75
:100E6000C50164E040E0212F0E94130280ED97E06D
:100E7000F7013197F1F70197D9F7C60165E040E036
:100E8000212F0E9413021F5F1E3051F7C60165E03B
:100E900040E02EE00E941302CE0187579F4F63E08F
:100EA00040E02FE00E94130288E893E1F7013197B8
:100EB000F1F70197D9F781E00E94870188E893E173
:100EC000F7013197F1F70197D9F722CCAA1BBB1B89
:100ED00051E107C0AA1FBB1FA617B70710F0A61B3A
:100EE000B70B881F991F5A95A9F780959095BC015B
:080EF000CD010895F894FFCF35
:100EF80048656C6C6F2049276D20446F616100491B
:100F08002043616E2052756E0049204C6F76652033
:100F180044616E63696E67004920506C61792046B0
:100F28006F6F7462616C6C004C6574277320476F37
:100F380000446F6E2774204B696C6C204D6500145B
:100F48001C1414000000000404140C140000000415
:100F5800040C1C1C0000000E0A0A0E140404040EE3
:100F68000A0A0E040414040E0A0A0E040404041FD8
:100F780011111F041E1D0400000014151F15140470
:100F8800140C04000000000405060400000000041E
:100F98000406050000000004040404000000000426
:100FA800040C14000000001F11111F040404041F86
:100FB80011111F140C04041F11111F050604041F2E
:100FC80011111F04040E151F11111F150E0404041E
:100FD800040A11000000001F1111111F041F040E44
:100FE8000A0A0E041F041F1F1F1A1A1E18181800B9
:00000001FF
